{
  "_format": "hh-sol-artifact-1",
  "contractName": "LSOM",
  "sourceName": "contracts/LSOM.sol",
  "abi": [
    {
      "inputs": [],
      "stateMutability": "nonpayable",
      "type": "constructor"
    },
    {
      "anonymous": false,
      "inputs": [
        {
          "indexed": true,
          "internalType": "address",
          "name": "owner",
          "type": "address"
        },
        {
          "indexed": true,
          "internalType": "address",
          "name": "approved",
          "type": "address"
        },
        {
          "indexed": true,
          "internalType": "uint256",
          "name": "tokenId",
          "type": "uint256"
        }
      ],
      "name": "Approval",
      "type": "event"
    },
    {
      "anonymous": false,
      "inputs": [
        {
          "indexed": true,
          "internalType": "address",
          "name": "owner",
          "type": "address"
        },
        {
          "indexed": true,
          "internalType": "address",
          "name": "operator",
          "type": "address"
        },
        {
          "indexed": false,
          "internalType": "bool",
          "name": "approved",
          "type": "bool"
        }
      ],
      "name": "ApprovalForAll",
      "type": "event"
    },
    {
      "anonymous": false,
      "inputs": [
        {
          "indexed": true,
          "internalType": "address",
          "name": "previousOwner",
          "type": "address"
        },
        {
          "indexed": true,
          "internalType": "address",
          "name": "newOwner",
          "type": "address"
        }
      ],
      "name": "OwnershipTransferred",
      "type": "event"
    },
    {
      "anonymous": false,
      "inputs": [
        {
          "indexed": true,
          "internalType": "address",
          "name": "from",
          "type": "address"
        },
        {
          "indexed": true,
          "internalType": "address",
          "name": "to",
          "type": "address"
        },
        {
          "indexed": true,
          "internalType": "uint256",
          "name": "tokenId",
          "type": "uint256"
        }
      ],
      "name": "Transfer",
      "type": "event"
    },
    {
      "inputs": [],
      "name": "BASE_URL",
      "outputs": [
        {
          "internalType": "string",
          "name": "",
          "type": "string"
        }
      ],
      "stateMutability": "view",
      "type": "function"
    },
    {
      "inputs": [],
      "name": "EXTENSION",
      "outputs": [
        {
          "internalType": "string",
          "name": "",
          "type": "string"
        }
      ],
      "stateMutability": "view",
      "type": "function"
    },
    {
      "inputs": [],
      "name": "GIVEAWAYS",
      "outputs": [
        {
          "internalType": "uint256",
          "name": "",
          "type": "uint256"
        }
      ],
      "stateMutability": "view",
      "type": "function"
    },
    {
      "inputs": [],
      "name": "MAX_BATCH",
      "outputs": [
        {
          "internalType": "uint256",
          "name": "",
          "type": "uint256"
        }
      ],
      "stateMutability": "view",
      "type": "function"
    },
    {
      "inputs": [],
      "name": "MAX_SUPPLY",
      "outputs": [
        {
          "internalType": "uint256",
          "name": "",
          "type": "uint256"
        }
      ],
      "stateMutability": "view",
      "type": "function"
    },
    {
      "inputs": [
        {
          "internalType": "address",
          "name": "to",
          "type": "address"
        },
        {
          "internalType": "uint256",
          "name": "tokenId",
          "type": "uint256"
        }
      ],
      "name": "approve",
      "outputs": [],
      "stateMutability": "nonpayable",
      "type": "function"
    },
    {
      "inputs": [
        {
          "internalType": "address",
          "name": "owner",
          "type": "address"
        }
      ],
      "name": "balanceOf",
      "outputs": [
        {
          "internalType": "uint256",
          "name": "",
          "type": "uint256"
        }
      ],
      "stateMutability": "view",
      "type": "function"
    },
    {
      "inputs": [
        {
          "internalType": "uint256",
          "name": "quantity",
          "type": "uint256"
        }
      ],
      "name": "devMint",
      "outputs": [],
      "stateMutability": "nonpayable",
      "type": "function"
    },
    {
      "inputs": [
        {
          "internalType": "uint256",
          "name": "quantity",
          "type": "uint256"
        }
      ],
      "name": "eapMint",
      "outputs": [],
      "stateMutability": "nonpayable",
      "type": "function"
    },
    {
      "inputs": [
        {
          "internalType": "uint256",
          "name": "tokenId",
          "type": "uint256"
        }
      ],
      "name": "getApproved",
      "outputs": [
        {
          "internalType": "address",
          "name": "",
          "type": "address"
        }
      ],
      "stateMutability": "view",
      "type": "function"
    },
    {
      "inputs": [
        {
          "internalType": "address",
          "name": "owner",
          "type": "address"
        },
        {
          "internalType": "address",
          "name": "operator",
          "type": "address"
        }
      ],
      "name": "isApprovedForAll",
      "outputs": [
        {
          "internalType": "bool",
          "name": "",
          "type": "bool"
        }
      ],
      "stateMutability": "view",
      "type": "function"
    },
    {
      "inputs": [],
      "name": "name",
      "outputs": [
        {
          "internalType": "string",
          "name": "",
          "type": "string"
        }
      ],
      "stateMutability": "view",
      "type": "function"
    },
    {
      "inputs": [],
      "name": "nextOwnerToExplicitlySet",
      "outputs": [
        {
          "internalType": "uint256",
          "name": "",
          "type": "uint256"
        }
      ],
      "stateMutability": "view",
      "type": "function"
    },
    {
      "inputs": [],
      "name": "owner",
      "outputs": [
        {
          "internalType": "address",
          "name": "",
          "type": "address"
        }
      ],
      "stateMutability": "view",
      "type": "function"
    },
    {
      "inputs": [
        {
          "internalType": "uint256",
          "name": "tokenId",
          "type": "uint256"
        }
      ],
      "name": "ownerOf",
      "outputs": [
        {
          "internalType": "address",
          "name": "",
          "type": "address"
        }
      ],
      "stateMutability": "view",
      "type": "function"
    },
    {
      "inputs": [],
      "name": "paused",
      "outputs": [
        {
          "internalType": "bool",
          "name": "",
          "type": "bool"
        }
      ],
      "stateMutability": "view",
      "type": "function"
    },
    {
      "inputs": [
        {
          "internalType": "uint256",
          "name": "quantity",
          "type": "uint256"
        }
      ],
      "name": "pubMint",
      "outputs": [],
      "stateMutability": "nonpayable",
      "type": "function"
    },
    {
      "inputs": [],
      "name": "renounceOwnership",
      "outputs": [],
      "stateMutability": "nonpayable",
      "type": "function"
    },
    {
      "inputs": [
        {
          "internalType": "address",
          "name": "from",
          "type": "address"
        },
        {
          "internalType": "address",
          "name": "to",
          "type": "address"
        },
        {
          "internalType": "uint256",
          "name": "tokenId",
          "type": "uint256"
        }
      ],
      "name": "safeTransferFrom",
      "outputs": [],
      "stateMutability": "nonpayable",
      "type": "function"
    },
    {
      "inputs": [
        {
          "internalType": "address",
          "name": "from",
          "type": "address"
        },
        {
          "internalType": "address",
          "name": "to",
          "type": "address"
        },
        {
          "internalType": "uint256",
          "name": "tokenId",
          "type": "uint256"
        },
        {
          "internalType": "bytes",
          "name": "_data",
          "type": "bytes"
        }
      ],
      "name": "safeTransferFrom",
      "outputs": [],
      "stateMutability": "nonpayable",
      "type": "function"
    },
    {
      "inputs": [],
      "name": "sale_state",
      "outputs": [
        {
          "internalType": "uint16",
          "name": "",
          "type": "uint16"
        }
      ],
      "stateMutability": "view",
      "type": "function"
    },
    {
      "inputs": [
        {
          "internalType": "address",
          "name": "operator",
          "type": "address"
        },
        {
          "internalType": "bool",
          "name": "approved",
          "type": "bool"
        }
      ],
      "name": "setApprovalForAll",
      "outputs": [],
      "stateMutability": "nonpayable",
      "type": "function"
    },
    {
      "inputs": [
        {
          "internalType": "string",
          "name": "_url",
          "type": "string"
        }
      ],
      "name": "setBaseURL",
      "outputs": [],
      "stateMutability": "nonpayable",
      "type": "function"
    },
    {
      "inputs": [
        {
          "internalType": "uint16",
          "name": "_sale_state",
          "type": "uint16"
        }
      ],
      "name": "setSaleState",
      "outputs": [],
      "stateMutability": "nonpayable",
      "type": "function"
    },
    {
      "inputs": [
        {
          "internalType": "bytes4",
          "name": "interfaceId",
          "type": "bytes4"
        }
      ],
      "name": "supportsInterface",
      "outputs": [
        {
          "internalType": "bool",
          "name": "",
          "type": "bool"
        }
      ],
      "stateMutability": "view",
      "type": "function"
    },
    {
      "inputs": [],
      "name": "symbol",
      "outputs": [
        {
          "internalType": "string",
          "name": "",
          "type": "string"
        }
      ],
      "stateMutability": "view",
      "type": "function"
    },
    {
      "inputs": [],
      "name": "togglePaused",
      "outputs": [],
      "stateMutability": "nonpayable",
      "type": "function"
    },
    {
      "inputs": [
        {
          "internalType": "uint256",
          "name": "index",
          "type": "uint256"
        }
      ],
      "name": "tokenByIndex",
      "outputs": [
        {
          "internalType": "uint256",
          "name": "",
          "type": "uint256"
        }
      ],
      "stateMutability": "view",
      "type": "function"
    },
    {
      "inputs": [
        {
          "internalType": "address",
          "name": "owner",
          "type": "address"
        },
        {
          "internalType": "uint256",
          "name": "index",
          "type": "uint256"
        }
      ],
      "name": "tokenOfOwnerByIndex",
      "outputs": [
        {
          "internalType": "uint256",
          "name": "",
          "type": "uint256"
        }
      ],
      "stateMutability": "view",
      "type": "function"
    },
    {
      "inputs": [
        {
          "internalType": "uint256",
          "name": "_tokenId",
          "type": "uint256"
        }
      ],
      "name": "tokenURI",
      "outputs": [
        {
          "internalType": "string",
          "name": "",
          "type": "string"
        }
      ],
      "stateMutability": "view",
      "type": "function"
    },
    {
      "inputs": [],
      "name": "totalSupply",
      "outputs": [
        {
          "internalType": "uint256",
          "name": "",
          "type": "uint256"
        }
      ],
      "stateMutability": "view",
      "type": "function"
    },
    {
      "inputs": [
        {
          "internalType": "address",
          "name": "from",
          "type": "address"
        },
        {
          "internalType": "address",
          "name": "to",
          "type": "address"
        },
        {
          "internalType": "uint256",
          "name": "tokenId",
          "type": "uint256"
        }
      ],
      "name": "transferFrom",
      "outputs": [],
      "stateMutability": "nonpayable",
      "type": "function"
    },
    {
      "inputs": [
        {
          "internalType": "address",
          "name": "newOwner",
          "type": "address"
        }
      ],
      "name": "transferOwnership",
      "outputs": [],
      "stateMutability": "nonpayable",
      "type": "function"
    }
  ],
  "bytecode": "0x600080805560075560fc600955600c600a55603c600b55610120604052603660c0818152906200296960e03980516200004191600d91602090910190620001cf565b5060408051808201909152600580825264173539b7b760d91b60209092019182526200007091600e91620001cf565b503480156200007e57600080fd5b506040518060400160405280602081526020017f446567656e204167653a204c6f737420536861726473206f66204d6964726168815250604051806040016040528060048152602001634c534f4d60e01b815250600a5460095460008111620001045760405162461bcd60e51b8152600401620000fb90620002bc565b60405180910390fd5b60008211620001275760405162461bcd60e51b8152600401620000fb9062000275565b83516200013c906001906020870190620001cf565b50825162000152906002906020860190620001cf565b5060a091909152608052506200017390506200016d62000179565b6200017d565b62000347565b3390565b600880546001600160a01b038381166001600160a01b0319831681179093556040519116919082907f8be0079c531659141344cd1fd0a4f28419497f9722a3daafe3b4186f6b6457e090600090a35050565b828054620001dd906200030a565b90600052602060002090601f0160209004810192826200020157600085556200024c565b82601f106200021c57805160ff19168380011785556200024c565b828001600101855582156200024c579182015b828111156200024c5782518255916020019190600101906200022f565b506200025a9291506200025e565b5090565b5b808211156200025a57600081556001016200025f565b60208082526027908201527f455243373231413a206d61782062617463682073697a65206d757374206265206040820152666e6f6e7a65726f60c81b606082015260800190565b6020808252602e908201527f455243373231413a20636f6c6c656374696f6e206d757374206861766520612060408201526d6e6f6e7a65726f20737570706c7960901b606082015260800190565b6002810460018216806200031f57607f821691505b602082108114156200034157634e487b7160e01b600052602260045260246000fd5b50919050565b60805160a0516125f162000378600039600081816111da0152818161120401526115ea0152600050506125f16000f3fe608060405234801561001057600080fd5b50600436106101fb5760003560e01c80636352211e1161011a578063b88d4fde116100ad578063d4d7a4a51161007c578063d4d7a4a5146103cf578063d7224ba0146103e2578063e985e9c5146103ea578063f2fde38b146103fd578063f5e1713e14610410576101fb565b8063b88d4fde1461038e578063c1d9df8d146103a1578063c87b56dd146103b4578063ce2a86f0146103c7576101fb565b80638da5cb5b116100e95780638da5cb5b14610363578063950bff9f1461036b57806395d89b4114610373578063a22cb4651461037b576101fb565b80636352211e1461032d57806370a0823114610340578063715018a6146103535780637f78636a1461035b576101fb565b806332cb6b0c1161019257806346f136191161016157806346f13619146102f757806349f2553a146102ff5780634f6ccce7146103125780635c975abb14610325576101fb565b806332cb6b0c146102c157806336566f06146102c9578063375a069a146102d157806342842e0e146102e4576101fb565b80631438ddee116101ce5780631438ddee1461027357806318160ddd1461028657806323b872dd1461029b5780632f745c59146102ae576101fb565b806301ffc9a71461020057806306fdde0314610229578063081812fc1461023e578063095ea7b31461025e575b600080fd5b61021361020e366004611abe565b610425565b6040516102209190611cbe565b60405180910390f35b610231610488565b6040516102209190611cc9565b61025161024c366004611b5e565b61051a565b6040516102209190611c6d565b61027161026c366004611a95565b610566565b005b610271610281366004611b3c565b6105ff565b61028e610656565b604051610220919061240b565b6102716102a93660046119a7565b61065c565b61028e6102bc366004611a95565b610667565b61028e610763565b610271610769565b6102716102df366004611b5e565b6107c7565b6102716102f23660046119a7565b6108b5565b6102316108d0565b61027161030d366004611af6565b61095e565b61028e610320366004611b5e565b6109b4565b6102136109e0565b61025161033b366004611b5e565b6109ef565b61028e61034e366004611954565b610a01565b610271610a4e565b610231610a99565b610251610aa6565b61028e610ab5565b610231610abb565b610271610389366004611a5b565b610aca565b61027161039c3660046119e2565b610b98565b6102716103af366004611b5e565b610bd1565b6102316103c2366004611b5e565b610ca2565b61028e610cd9565b6102716103dd366004611b5e565b610cdf565b61028e610d4f565b6102136103f8366004611975565b610d55565b61027161040b366004611954565b610d83565b610418610df1565b60405161022091906123fc565b60006001600160e01b031982166380ac58cd60e01b148061045657506001600160e01b03198216635b5e139f60e01b145b8061047157506001600160e01b0319821663780e9d6360e01b145b80610480575061048082610dfb565b90505b919050565b606060018054610497906124f9565b80601f01602080910402602001604051908101604052809291908181526020018280546104c3906124f9565b80156105105780601f106104e557610100808354040283529160200191610510565b820191906000526020600020905b8154815290600101906020018083116104f357829003601f168201915b5050505050905090565b600061052582610e14565b61054a5760405162461bcd60e51b81526004016105419061232c565b60405180910390fd5b506000908152600560205260409020546001600160a01b031690565b6000610571826109ef565b9050806001600160a01b0316836001600160a01b031614156105a55760405162461bcd60e51b815260040161054190612182565b806001600160a01b03166105b7610e1b565b6001600160a01b031614806105d357506105d3816103f8610e1b565b6105ef5760405162461bcd60e51b815260040161054190611f9f565b6105fa838383610e1f565b505050565b610607610e1b565b6001600160a01b0316610618610aa6565b6001600160a01b03161461063e5760405162461bcd60e51b81526004016105419061208d565b600c805461ffff191661ffff92909216919091179055565b60005490565b6105fa838383610e7b565b600061067283610a01565b82106106905760405162461bcd60e51b815260040161054190611cdc565b600061069a610656565b905060008060005b83811015610744576000818152600360209081526040918290208251808401909352546001600160a01b038116808452600160a01b90910467ffffffffffffffff1691830191909152156106f557805192505b876001600160a01b0316836001600160a01b0316141561073157868414156107235750935061075d92505050565b8361072d81612534565b9450505b508061073c81612534565b9150506106a2565b5060405162461bcd60e51b81526004016105419061228f565b92915050565b60095481565b610771610e1b565b6001600160a01b0316610782610aa6565b6001600160a01b0316146107a85760405162461bcd60e51b81526004016105419061208d565b600c805462ff0000198116620100009182900460ff1615909102179055565b6107cf610e1b565b6001600160a01b03166107e0610aa6565b6001600160a01b0316146108065760405162461bcd60e51b81526004016105419061208d565b600c5462010000900460ff161561081c57600080fd5b600a54610829908261254f565b156108465760405162461bcd60e51b815260040161054190611f5a565b600b5481610852610656565b61085c919061244b565b111561087a5760405162461bcd60e51b815260040161054190611dae565b6000600a548261088a9190612463565b905060005b818110156105fa576108a333600a5461118f565b806108ad81612534565b91505061088f565b6105fa83838360405180602001604052806000815250610b98565b600e80546108dd906124f9565b80601f0160208091040260200160405190810160405280929190818152602001828054610909906124f9565b80156109565780601f1061092b57610100808354040283529160200191610956565b820191906000526020600020905b81548152906001019060200180831161093957829003601f168201915b505050505081565b610966610e1b565b6001600160a01b0316610977610aa6565b6001600160a01b03161461099d5760405162461bcd60e51b81526004016105419061208d565b80516109b090600d90602084019061181b565b5050565b60006109be610656565b82106109dc5760405162461bcd60e51b815260040161054190611e2f565b5090565b600c5462010000900460ff1681565b60006109fa826111a9565b5192915050565b60006001600160a01b038216610a295760405162461bcd60e51b815260040161054190611ffc565b506001600160a01b03166000908152600460205260409020546001600160801b031690565b610a56610e1b565b6001600160a01b0316610a67610aa6565b6001600160a01b031614610a8d5760405162461bcd60e51b81526004016105419061208d565b610a9760006112bc565b565b600d80546108dd906124f9565b6008546001600160a01b031690565b600a5481565b606060028054610497906124f9565b610ad2610e1b565b6001600160a01b0316826001600160a01b03161415610b035760405162461bcd60e51b8152600401610541906120c2565b8060066000610b10610e1b565b6001600160a01b03908116825260208083019390935260409182016000908120918716808252919093529120805460ff191692151592909217909155610b54610e1b565b6001600160a01b03167f17307eab39ab6107e8899845ad3d59bd9653f200f220920489ca2b5937696c3183604051610b8c9190611cbe565b60405180910390a35050565b610ba3848484610e7b565b610baf8484848461130e565b610bcb5760405162461bcd60e51b8152600401610541906121c4565b50505050565b600c5462010000900460ff1615610be757600080fd5b60095481610bf3610656565b610bfd919061244b565b1115610c1b5760405162461bcd60e51b815260040161054190611df8565b600c5461ffff16600214610c415760405162461bcd60e51b81526004016105419061214b565b323314610c605760405162461bcd60e51b8152600401610541906123bb565b600a5481610c6d3361142a565b610c77919061244b565b1115610c955760405162461bcd60e51b815260040161054190611f08565b610c9f338261118f565b50565b6060600d610caf8361147e565b600e604051602001610cc393929190611c3a565b6040516020818303038152906040529050919050565b600b5481565b600c5462010000900460ff1615610cf557600080fd5b60095481610d01610656565b610d0b919061244b565b1115610d295760405162461bcd60e51b815260040161054190611df8565b600c5461ffff16600114610c415760405162461bcd60e51b81526004016105419061214b565b60075481565b6001600160a01b03918216600090815260066020908152604080832093909416825291909152205460ff1690565b610d8b610e1b565b6001600160a01b0316610d9c610aa6565b6001600160a01b031614610dc25760405162461bcd60e51b81526004016105419061208d565b6001600160a01b038116610de85760405162461bcd60e51b815260040161054190611d1e565b610c9f816112bc565b600c5461ffff1681565b6001600160e01b031981166301ffc9a760e01b14919050565b6000541190565b3390565b60008281526005602052604080822080546001600160a01b0319166001600160a01b0387811691821790925591518593918516917f8c5be1e5ebec7d5bd14f71427d1e84f3dd0314c0f7b2291e5b200ac8c7c3b92591a4505050565b6000610e86826111a9565b9050600081600001516001600160a01b0316610ea0610e1b565b6001600160a01b03161480610ed55750610eb8610e1b565b6001600160a01b0316610eca8461051a565b6001600160a01b0316145b80610ee957508151610ee9906103f8610e1b565b905080610f085760405162461bcd60e51b8152600401610541906120f9565b846001600160a01b031682600001516001600160a01b031614610f3d5760405162461bcd60e51b815260040161054190612047565b6001600160a01b038416610f635760405162461bcd60e51b815260040161054190611e72565b610f708585856001610bcb565b610f806000848460000151610e1f565b6001600160a01b0385166000908152600460205260408120805460019290610fb29084906001600160801b0316612477565b82546101009290920a6001600160801b038181021990931691831602179091556001600160a01b03861660009081526004602052604081208054600194509092610ffe91859116612420565b82546001600160801b039182166101009390930a9283029190920219909116179055506040805180820182526001600160a01b03808716825267ffffffffffffffff428116602080850191825260008981526003909152948520935184549151909216600160a01b0267ffffffffffffffff60a01b19929093166001600160a01b0319909116171617905561109484600161244b565b6000818152600360205260409020549091506001600160a01b0316611139576110bc81610e14565b156111395760408051808201825284516001600160a01b03908116825260208087015167ffffffffffffffff90811682850190815260008781526003909352949091209251835494516001600160a01b031990951692169190911767ffffffffffffffff60a01b1916600160a01b93909116929092029190911790555b83856001600160a01b0316876001600160a01b03167fddf252ad1be2c89b69c2b068fc378daa952ba7f163c4a11628f55a4df523b3ef60405160405180910390a46111878686866001610bcb565b505050505050565b6109b0828260405180602001604052806000815250611599565b6111b161189b565b6111ba82610e14565b6111d65760405162461bcd60e51b815260040161054190611d64565b60007f00000000000000000000000000000000000000000000000000000000000000008310611237576112297f00000000000000000000000000000000000000000000000000000000000000008461249f565b61123490600161244b565b90505b825b8181106112a3576000818152600360209081526040918290208251808401909352546001600160a01b038116808452600160a01b90910467ffffffffffffffff169183019190915215611290579250610483915050565b508061129b816124e2565b915050611239565b5060405162461bcd60e51b8152600401610541906122dd565b600880546001600160a01b038381166001600160a01b0319831681179093556040519116919082907f8be0079c531659141344cd1fd0a4f28419497f9722a3daafe3b4186f6b6457e090600090a35050565b6000611322846001600160a01b031661180c565b1561141e57836001600160a01b031663150b7a0261133e610e1b565b8786866040518563ffffffff1660e01b81526004016113609493929190611c81565b602060405180830381600087803b15801561137a57600080fd5b505af19250505080156113aa575060408051601f3d908101601f191682019092526113a791810190611ada565b60015b611404573d8080156113d8576040519150601f19603f3d011682016040523d82523d6000602084013e6113dd565b606091505b5080516113fc5760405162461bcd60e51b8152600401610541906121c4565b805181602001fd5b6001600160e01b031916630a85bd0160e11b149050611422565b5060015b949350505050565b60006001600160a01b0382166114525760405162461bcd60e51b815260040161054190611eb7565b506001600160a01b0316600090815260046020526040902054600160801b90046001600160801b031690565b6060816114a357506040805180820190915260018152600360fc1b6020820152610483565b8160005b81156114cd57806114b781612534565b91506114c69050600a83612463565b91506114a7565b60008167ffffffffffffffff8111156114f657634e487b7160e01b600052604160045260246000fd5b6040519080825280601f01601f191660200182016040528015611520576020820181803683370190505b5090505b84156114225761153560018361249f565b9150611542600a8661254f565b61154d90603061244b565b60f81b81838151811061157057634e487b7160e01b600052603260045260246000fd5b60200101906001600160f81b031916908160001a905350611592600a86612463565b9450611524565b6000546001600160a01b0384166115c25760405162461bcd60e51b81526004016105419061224e565b6115cb81610e14565b156115e85760405162461bcd60e51b815260040161054190612217565b7f00000000000000000000000000000000000000000000000000000000000000008311156116285760405162461bcd60e51b815260040161054190612379565b6116356000858386610bcb565b6001600160a01b0384166000908152600460209081526040918290208251808401845290546001600160801b038082168352600160801b9091041691810191909152815180830190925280519091908190611691908790612420565b6001600160801b031681526020018583602001516116af9190612420565b6001600160801b039081169091526001600160a01b03808816600081815260046020908152604080832087518154988401518816600160801b029088166fffffffffffffffffffffffffffffffff1990991698909817909616969096179094558451808601865291825267ffffffffffffffff4281168386019081528883526003909552948120915182549451909516600160a01b0267ffffffffffffffff60a01b19959093166001600160a01b031990941693909317939093161790915582905b858110156117fa5760405182906001600160a01b038916906000907fddf252ad1be2c89b69c2b068fc378daa952ba7f163c4a11628f55a4df523b3ef908290a46117be600088848861130e565b6117da5760405162461bcd60e51b8152600401610541906121c4565b816117e481612534565b92505080806117f290612534565b915050611771565b50600081815561118790878588610bcb565b6001600160a01b03163b151590565b828054611827906124f9565b90600052602060002090601f016020900481019282611849576000855561188f565b82601f1061186257805160ff191683800117855561188f565b8280016001018555821561188f579182015b8281111561188f578251825591602001919060010190611874565b506109dc9291506118b2565b604080518082019091526000808252602082015290565b5b808211156109dc57600081556001016118b3565b600067ffffffffffffffff808411156118e2576118e261258f565b604051601f8501601f19908116603f0116810190828211818310171561190a5761190a61258f565b8160405280935085815286868601111561192357600080fd5b858560208301376000602087830101525050509392505050565b80356001600160a01b038116811461048357600080fd5b600060208284031215611965578081fd5b61196e8261193d565b9392505050565b60008060408385031215611987578081fd5b6119908361193d565b915061199e6020840161193d565b90509250929050565b6000806000606084860312156119bb578081fd5b6119c48461193d565b92506119d26020850161193d565b9150604084013590509250925092565b600080600080608085870312156119f7578081fd5b611a008561193d565b9350611a0e6020860161193d565b925060408501359150606085013567ffffffffffffffff811115611a30578182fd5b8501601f81018713611a40578182fd5b611a4f878235602084016118c7565b91505092959194509250565b60008060408385031215611a6d578182fd5b611a768361193d565b915060208301358015158114611a8a578182fd5b809150509250929050565b60008060408385031215611aa7578182fd5b611ab08361193d565b946020939093013593505050565b600060208284031215611acf578081fd5b813561196e816125a5565b600060208284031215611aeb578081fd5b815161196e816125a5565b600060208284031215611b07578081fd5b813567ffffffffffffffff811115611b1d578182fd5b8201601f81018413611b2d578182fd5b611422848235602084016118c7565b600060208284031215611b4d578081fd5b813561ffff8116811461196e578182fd5b600060208284031215611b6f578081fd5b5035919050565b60008151808452611b8e8160208601602086016124b6565b601f01601f19169290920160200192915050565b805460009060028104600180831680611bbc57607f831692505b6020808410821415611bdc57634e487b7160e01b86526022600452602486fd5b818015611bf05760018114611c0157611c2e565b60ff19861689528489019650611c2e565b611c0a88612414565b60005b86811015611c265781548b820152908501908301611c0d565b505084890196505b50505050505092915050565b6000611c468286611ba2565b8451611c568183602089016124b6565b611c6281830186611ba2565b979650505050505050565b6001600160a01b0391909116815260200190565b6001600160a01b0385811682528416602082015260408101839052608060608201819052600090611cb490830184611b76565b9695505050505050565b901515815260200190565b60006020825261196e6020830184611b76565b60208082526022908201527f455243373231413a206f776e657220696e646578206f7574206f6620626f756e604082015261647360f01b606082015260800190565b60208082526026908201527f4f776e61626c653a206e6577206f776e657220697320746865207a65726f206160408201526564647265737360d01b606082015260800190565b6020808252602a908201527f455243373231413a206f776e657220717565727920666f72206e6f6e657869736040820152693a32b73a103a37b5b2b760b11b606082015260800190565b6020808252602a908201527f5175616e746974792065786365656473206e756d626572206f6620726573657260408201526976656420746f6b656e7360b01b606082015260800190565b6020808252601b908201527f416c6c207368617264732068617665206265656e206d696e7465640000000000604082015260600190565b60208082526023908201527f455243373231413a20676c6f62616c20696e646578206f7574206f6620626f756040820152626e647360e81b606082015260800190565b60208082526025908201527f455243373231413a207472616e7366657220746f20746865207a65726f206164604082015264647265737360d81b606082015260800190565b60208082526031908201527f455243373231413a206e756d626572206d696e74656420717565727920666f7260408201527020746865207a65726f206164647265737360781b606082015260800190565b60208082526032908201527f41646472657373206973206e6f7420616c6c6f77656420746f206d696e74206d6040820152710dee4ca40e8d0c2dc409a82b0be8482a886960731b606082015260800190565b60208082526025908201527f43616e206f6e6c79206d696e742061206d756c7469706c65206f66204d41585f60408201526408482a886960db1b606082015260800190565b60208082526039908201527f455243373231413a20617070726f76652063616c6c6572206973206e6f74206f60408201527f776e6572206e6f7220617070726f76656420666f7220616c6c00000000000000606082015260800190565b6020808252602b908201527f455243373231413a2062616c616e636520717565727920666f7220746865207a60408201526a65726f206164647265737360a81b606082015260800190565b60208082526026908201527f455243373231413a207472616e736665722066726f6d20696e636f72726563746040820152651037bbb732b960d11b606082015260800190565b6020808252818101527f4f776e61626c653a2063616c6c6572206973206e6f7420746865206f776e6572604082015260600190565b6020808252601a908201527f455243373231413a20617070726f766520746f2063616c6c6572000000000000604082015260600190565b60208082526032908201527f455243373231413a207472616e736665722063616c6c6572206973206e6f74206040820152711bdddb995c881b9bdc88185c1c1c9bdd995960721b606082015260800190565b6020808252601a908201527f53616c652069732063757272656e746c7920696e616374697665000000000000604082015260600190565b60208082526022908201527f455243373231413a20617070726f76616c20746f2063757272656e74206f776e60408201526132b960f11b606082015260800190565b60208082526033908201527f455243373231413a207472616e7366657220746f206e6f6e204552433732315260408201527232b1b2b4bb32b91034b6b83632b6b2b73a32b960691b606082015260800190565b6020808252601d908201527f455243373231413a20746f6b656e20616c7265616479206d696e746564000000604082015260600190565b60208082526021908201527f455243373231413a206d696e7420746f20746865207a65726f206164647265736040820152607360f81b606082015260800190565b6020808252602e908201527f455243373231413a20756e61626c6520746f2067657420746f6b656e206f662060408201526d0deeedccae440c4f240d2dcc8caf60931b606082015260800190565b6020808252602f908201527f455243373231413a20756e61626c6520746f2064657465726d696e652074686560408201526e1037bbb732b91037b3103a37b5b2b760891b606082015260800190565b6020808252602d908201527f455243373231413a20617070726f76656420717565727920666f72206e6f6e6560408201526c3c34b9ba32b73a103a37b5b2b760991b606082015260800190565b60208082526022908201527f455243373231413a207175616e7469747920746f206d696e7420746f6f2068696040820152610ced60f31b606082015260800190565b60208082526021908201527f436f6e74726163747320617265206e6f7420616c6c6f77656420746f206d696e6040820152601d60fa1b606082015260800190565b61ffff91909116815260200190565b90815260200190565b60009081526020902090565b60006001600160801b0380831681851680830382111561244257612442612563565b01949350505050565b6000821982111561245e5761245e612563565b500190565b60008261247257612472612579565b500490565b60006001600160801b038381169083168181101561249757612497612563565b039392505050565b6000828210156124b1576124b1612563565b500390565b60005b838110156124d15781810151838201526020016124b9565b83811115610bcb5750506000910152565b6000816124f1576124f1612563565b506000190190565b60028104600182168061250d57607f821691505b6020821081141561252e57634e487b7160e01b600052602260045260246000fd5b50919050565b600060001982141561254857612548612563565b5060010190565b60008261255e5761255e612579565b500690565b634e487b7160e01b600052601160045260246000fd5b634e487b7160e01b600052601260045260246000fd5b634e487b7160e01b600052604160045260246000fd5b6001600160e01b031981168114610c9f57600080fdfea2646970667358221220cf70e045afcfd27e03d8b56afc03fd609b43b0e0f91b5e6ea77bcd9724eb25dc64736f6c63430008010033697066733a2f2f516d614b42536e5168644d474269454c69724770546761613871634845313744516235646f37526a69716f6f38462f",
  "linkReferences": {},
  "deployedLinkReferences": {}
}