{
  "_format": "hh-sol-artifact-1",
  "contractName": "LSOM",
  "sourceName": "contracts/LSOM.sol",
  "abi": [
    {
      "inputs": [],
      "stateMutability": "nonpayable",
      "type": "constructor"
    },
    {
      "anonymous": false,
      "inputs": [
        {
          "indexed": true,
          "internalType": "address",
          "name": "owner",
          "type": "address"
        },
        {
          "indexed": true,
          "internalType": "address",
          "name": "approved",
          "type": "address"
        },
        {
          "indexed": true,
          "internalType": "uint256",
          "name": "tokenId",
          "type": "uint256"
        }
      ],
      "name": "Approval",
      "type": "event"
    },
    {
      "anonymous": false,
      "inputs": [
        {
          "indexed": true,
          "internalType": "address",
          "name": "owner",
          "type": "address"
        },
        {
          "indexed": true,
          "internalType": "address",
          "name": "operator",
          "type": "address"
        },
        {
          "indexed": false,
          "internalType": "bool",
          "name": "approved",
          "type": "bool"
        }
      ],
      "name": "ApprovalForAll",
      "type": "event"
    },
    {
      "anonymous": false,
      "inputs": [
        {
          "indexed": true,
          "internalType": "address",
          "name": "previousOwner",
          "type": "address"
        },
        {
          "indexed": true,
          "internalType": "address",
          "name": "newOwner",
          "type": "address"
        }
      ],
      "name": "OwnershipTransferred",
      "type": "event"
    },
    {
      "anonymous": false,
      "inputs": [
        {
          "indexed": true,
          "internalType": "address",
          "name": "from",
          "type": "address"
        },
        {
          "indexed": true,
          "internalType": "address",
          "name": "to",
          "type": "address"
        },
        {
          "indexed": true,
          "internalType": "uint256",
          "name": "tokenId",
          "type": "uint256"
        }
      ],
      "name": "Transfer",
      "type": "event"
    },
    {
      "inputs": [],
      "name": "BASE_URL",
      "outputs": [
        {
          "internalType": "string",
          "name": "",
          "type": "string"
        }
      ],
      "stateMutability": "view",
      "type": "function"
    },
    {
      "inputs": [],
      "name": "EXTENSION",
      "outputs": [
        {
          "internalType": "string",
          "name": "",
          "type": "string"
        }
      ],
      "stateMutability": "view",
      "type": "function"
    },
    {
      "inputs": [],
      "name": "GIVEAWAYS",
      "outputs": [
        {
          "internalType": "uint256",
          "name": "",
          "type": "uint256"
        }
      ],
      "stateMutability": "view",
      "type": "function"
    },
    {
      "inputs": [],
      "name": "MAX_BATCH",
      "outputs": [
        {
          "internalType": "uint256",
          "name": "",
          "type": "uint256"
        }
      ],
      "stateMutability": "view",
      "type": "function"
    },
    {
      "inputs": [],
      "name": "MAX_PUB_BATCH",
      "outputs": [
        {
          "internalType": "uint256",
          "name": "",
          "type": "uint256"
        }
      ],
      "stateMutability": "view",
      "type": "function"
    },
    {
      "inputs": [],
      "name": "MAX_SUPPLY",
      "outputs": [
        {
          "internalType": "uint256",
          "name": "",
          "type": "uint256"
        }
      ],
      "stateMutability": "view",
      "type": "function"
    },
    {
      "inputs": [
        {
          "internalType": "address",
          "name": "to",
          "type": "address"
        },
        {
          "internalType": "uint256",
          "name": "tokenId",
          "type": "uint256"
        }
      ],
      "name": "approve",
      "outputs": [],
      "stateMutability": "nonpayable",
      "type": "function"
    },
    {
      "inputs": [
        {
          "internalType": "address",
          "name": "owner",
          "type": "address"
        }
      ],
      "name": "balanceOf",
      "outputs": [
        {
          "internalType": "uint256",
          "name": "",
          "type": "uint256"
        }
      ],
      "stateMutability": "view",
      "type": "function"
    },
    {
      "inputs": [
        {
          "internalType": "uint256",
          "name": "quantity",
          "type": "uint256"
        }
      ],
      "name": "devMint",
      "outputs": [],
      "stateMutability": "nonpayable",
      "type": "function"
    },
    {
      "inputs": [
        {
          "internalType": "uint256",
          "name": "quantity",
          "type": "uint256"
        }
      ],
      "name": "eapMint",
      "outputs": [],
      "stateMutability": "nonpayable",
      "type": "function"
    },
    {
      "inputs": [
        {
          "internalType": "uint256",
          "name": "tokenId",
          "type": "uint256"
        }
      ],
      "name": "getApproved",
      "outputs": [
        {
          "internalType": "address",
          "name": "",
          "type": "address"
        }
      ],
      "stateMutability": "view",
      "type": "function"
    },
    {
      "inputs": [
        {
          "internalType": "address",
          "name": "owner",
          "type": "address"
        },
        {
          "internalType": "address",
          "name": "operator",
          "type": "address"
        }
      ],
      "name": "isApprovedForAll",
      "outputs": [
        {
          "internalType": "bool",
          "name": "",
          "type": "bool"
        }
      ],
      "stateMutability": "view",
      "type": "function"
    },
    {
      "inputs": [],
      "name": "name",
      "outputs": [
        {
          "internalType": "string",
          "name": "",
          "type": "string"
        }
      ],
      "stateMutability": "view",
      "type": "function"
    },
    {
      "inputs": [],
      "name": "nextOwnerToExplicitlySet",
      "outputs": [
        {
          "internalType": "uint256",
          "name": "",
          "type": "uint256"
        }
      ],
      "stateMutability": "view",
      "type": "function"
    },
    {
      "inputs": [],
      "name": "owner",
      "outputs": [
        {
          "internalType": "address",
          "name": "",
          "type": "address"
        }
      ],
      "stateMutability": "view",
      "type": "function"
    },
    {
      "inputs": [
        {
          "internalType": "uint256",
          "name": "tokenId",
          "type": "uint256"
        }
      ],
      "name": "ownerOf",
      "outputs": [
        {
          "internalType": "address",
          "name": "",
          "type": "address"
        }
      ],
      "stateMutability": "view",
      "type": "function"
    },
    {
      "inputs": [],
      "name": "paused",
      "outputs": [
        {
          "internalType": "bool",
          "name": "",
          "type": "bool"
        }
      ],
      "stateMutability": "view",
      "type": "function"
    },
    {
      "inputs": [
        {
          "internalType": "uint256",
          "name": "quantity",
          "type": "uint256"
        }
      ],
      "name": "pubMint",
      "outputs": [],
      "stateMutability": "nonpayable",
      "type": "function"
    },
    {
      "inputs": [],
      "name": "renounceOwnership",
      "outputs": [],
      "stateMutability": "nonpayable",
      "type": "function"
    },
    {
      "inputs": [
        {
          "internalType": "address",
          "name": "from",
          "type": "address"
        },
        {
          "internalType": "address",
          "name": "to",
          "type": "address"
        },
        {
          "internalType": "uint256",
          "name": "tokenId",
          "type": "uint256"
        }
      ],
      "name": "safeTransferFrom",
      "outputs": [],
      "stateMutability": "nonpayable",
      "type": "function"
    },
    {
      "inputs": [
        {
          "internalType": "address",
          "name": "from",
          "type": "address"
        },
        {
          "internalType": "address",
          "name": "to",
          "type": "address"
        },
        {
          "internalType": "uint256",
          "name": "tokenId",
          "type": "uint256"
        },
        {
          "internalType": "bytes",
          "name": "_data",
          "type": "bytes"
        }
      ],
      "name": "safeTransferFrom",
      "outputs": [],
      "stateMutability": "nonpayable",
      "type": "function"
    },
    {
      "inputs": [],
      "name": "sale_state",
      "outputs": [
        {
          "internalType": "uint16",
          "name": "",
          "type": "uint16"
        }
      ],
      "stateMutability": "view",
      "type": "function"
    },
    {
      "inputs": [
        {
          "internalType": "address",
          "name": "operator",
          "type": "address"
        },
        {
          "internalType": "bool",
          "name": "approved",
          "type": "bool"
        }
      ],
      "name": "setApprovalForAll",
      "outputs": [],
      "stateMutability": "nonpayable",
      "type": "function"
    },
    {
      "inputs": [
        {
          "internalType": "string",
          "name": "_url",
          "type": "string"
        }
      ],
      "name": "setBaseURL",
      "outputs": [],
      "stateMutability": "nonpayable",
      "type": "function"
    },
    {
      "inputs": [
        {
          "internalType": "uint16",
          "name": "_sale_state",
          "type": "uint16"
        }
      ],
      "name": "setSaleState",
      "outputs": [],
      "stateMutability": "nonpayable",
      "type": "function"
    },
    {
      "inputs": [
        {
          "internalType": "address[]",
          "name": "wallets",
          "type": "address[]"
        }
      ],
      "name": "setWhitelist",
      "outputs": [],
      "stateMutability": "nonpayable",
      "type": "function"
    },
    {
      "inputs": [
        {
          "internalType": "bytes4",
          "name": "interfaceId",
          "type": "bytes4"
        }
      ],
      "name": "supportsInterface",
      "outputs": [
        {
          "internalType": "bool",
          "name": "",
          "type": "bool"
        }
      ],
      "stateMutability": "view",
      "type": "function"
    },
    {
      "inputs": [],
      "name": "symbol",
      "outputs": [
        {
          "internalType": "string",
          "name": "",
          "type": "string"
        }
      ],
      "stateMutability": "view",
      "type": "function"
    },
    {
      "inputs": [],
      "name": "togglePaused",
      "outputs": [],
      "stateMutability": "nonpayable",
      "type": "function"
    },
    {
      "inputs": [
        {
          "internalType": "uint256",
          "name": "index",
          "type": "uint256"
        }
      ],
      "name": "tokenByIndex",
      "outputs": [
        {
          "internalType": "uint256",
          "name": "",
          "type": "uint256"
        }
      ],
      "stateMutability": "view",
      "type": "function"
    },
    {
      "inputs": [
        {
          "internalType": "address",
          "name": "owner",
          "type": "address"
        },
        {
          "internalType": "uint256",
          "name": "index",
          "type": "uint256"
        }
      ],
      "name": "tokenOfOwnerByIndex",
      "outputs": [
        {
          "internalType": "uint256",
          "name": "",
          "type": "uint256"
        }
      ],
      "stateMutability": "view",
      "type": "function"
    },
    {
      "inputs": [
        {
          "internalType": "uint256",
          "name": "_tokenId",
          "type": "uint256"
        }
      ],
      "name": "tokenURI",
      "outputs": [
        {
          "internalType": "string",
          "name": "",
          "type": "string"
        }
      ],
      "stateMutability": "view",
      "type": "function"
    },
    {
      "inputs": [],
      "name": "totalSupply",
      "outputs": [
        {
          "internalType": "uint256",
          "name": "",
          "type": "uint256"
        }
      ],
      "stateMutability": "view",
      "type": "function"
    },
    {
      "inputs": [
        {
          "internalType": "address",
          "name": "from",
          "type": "address"
        },
        {
          "internalType": "address",
          "name": "to",
          "type": "address"
        },
        {
          "internalType": "uint256",
          "name": "tokenId",
          "type": "uint256"
        }
      ],
      "name": "transferFrom",
      "outputs": [],
      "stateMutability": "nonpayable",
      "type": "function"
    },
    {
      "inputs": [
        {
          "internalType": "address",
          "name": "newOwner",
          "type": "address"
        }
      ],
      "name": "transferOwnership",
      "outputs": [],
      "stateMutability": "nonpayable",
      "type": "function"
    }
  ],
  "bytecode": "0x600080805560075560fc600955600c600a8190556006600b55603c9055610120604052603660c08181529062002b6760e03980516200004791600f91602090910190620001d6565b5060408051808201909152600580825264173539b7b760d91b60209092019182526200007691601091620001d6565b503480156200008457600080fd5b506040518060400160405280601581526020017f4c6f737420536861726473206f66204d6964726168000000000000000000000081525060405180604001604052806005815260200164444c534f4d60d81b815250600a54600954600081116200010b5760405162461bcd60e51b81526004016200010290620002c3565b60405180910390fd5b600082116200012e5760405162461bcd60e51b815260040162000102906200027c565b835162000143906001906020870190620001d6565b50825162000159906002906020860190620001d6565b5060a091909152608052506200017a90506200017462000180565b62000184565b6200034e565b3390565b600880546001600160a01b038381166001600160a01b0319831681179093556040519116919082907f8be0079c531659141344cd1fd0a4f28419497f9722a3daafe3b4186f6b6457e090600090a35050565b828054620001e49062000311565b90600052602060002090601f01602090048101928262000208576000855562000253565b82601f106200022357805160ff191683800117855562000253565b8280016001018555821562000253579182015b828111156200025357825182559160200191906001019062000236565b506200026192915062000265565b5090565b5b8082111562000261576000815560010162000266565b60208082526027908201527f455243373231413a206d61782062617463682073697a65206d757374206265206040820152666e6f6e7a65726f60c81b606082015260800190565b6020808252602e908201527f455243373231413a20636f6c6c656374696f6e206d757374206861766520612060408201526d6e6f6e7a65726f20737570706c7960901b606082015260800190565b6002810460018216806200032657607f821691505b602082108114156200034857634e487b7160e01b600052602260045260246000fd5b50919050565b60805160a0516127e86200037f6000396000818161132b01528181611355015261173b0152600050506127e86000f3fe608060405234801561001057600080fd5b50600436106102115760003560e01c80636352211e11610125578063c1d9df8d116100ad578063d7224ba01161007c578063d7224ba014610400578063e985e9c514610408578063f2fde38b1461041b578063f42176481461042e578063f5e1713e1461044157610211565b8063c1d9df8d146103bf578063c87b56dd146103d2578063ce2a86f0146103e5578063d4d7a4a5146103ed57610211565b80638da5cb5b116100f45780638da5cb5b14610381578063950bff9f1461038957806395d89b4114610391578063a22cb46514610399578063b88d4fde146103ac57610211565b80636352211e1461034b57806370a082311461035e578063715018a6146103715780637f78636a1461037957610211565b806332cb6b0c116101a857806342842e0e1161017757806342842e0e1461030257806346f136191461031557806349f2553a1461031d5780634f6ccce7146103305780635c975abb1461034357610211565b806332cb6b0c146102d75780633373a93b146102df57806336566f06146102e7578063375a069a146102ef57610211565b80631438ddee116101e45780631438ddee1461028957806318160ddd1461029c57806323b872dd146102b15780632f745c59146102c457610211565b806301ffc9a71461021657806306fdde031461023f578063081812fc14610254578063095ea7b314610274575b600080fd5b610229610224366004611c7e565b610456565b6040516102369190611e7e565b60405180910390f35b6102476104b9565b6040516102369190611e89565b610267610262366004611d1e565b61054b565b6040516102369190611e2d565b610287610282366004611be6565b610597565b005b610287610297366004611cfc565b610630565b6102a4610687565b6040516102369190612602565b6102876102bf366004611af8565b61068d565b6102a46102d2366004611be6565b610698565b6102a4610794565b6102a461079a565b6102876107a0565b6102876102fd366004611d1e565b6107fe565b610287610310366004611af8565b6108ec565b610247610907565b61028761032b366004611cb6565b610995565b6102a461033e366004611d1e565b6109eb565b610229610a17565b610267610359366004611d1e565b610a26565b6102a461036c366004611aa5565b610a38565b610287610a85565b610247610ad0565b610267610add565b6102a4610aec565b610247610af2565b6102876103a7366004611bac565b610b01565b6102876103ba366004611b33565b610bcf565b6102876103cd366004611d1e565b610c08565b6102476103e0366004611d1e565b610cd9565b6102a4610d10565b6102876103fb366004611d1e565b610d16565b6102a4610de1565b610229610416366004611ac6565b610de7565b610287610429366004611aa5565b610e15565b61028761043c366004611c0f565b610e83565b610449610f42565b60405161023691906125f3565b60006001600160e01b031982166380ac58cd60e01b148061048757506001600160e01b03198216635b5e139f60e01b145b806104a257506001600160e01b0319821663780e9d6360e01b145b806104b157506104b182610f4c565b90505b919050565b6060600180546104c8906126f0565b80601f01602080910402602001604051908101604052809291908181526020018280546104f4906126f0565b80156105415780601f1061051657610100808354040283529160200191610541565b820191906000526020600020905b81548152906001019060200180831161052457829003601f168201915b5050505050905090565b600061055682610f65565b61057b5760405162461bcd60e51b815260040161057290612523565b60405180910390fd5b506000908152600560205260409020546001600160a01b031690565b60006105a282610a26565b9050806001600160a01b0316836001600160a01b031614156105d65760405162461bcd60e51b815260040161057290612379565b806001600160a01b03166105e8610f6c565b6001600160a01b03161480610604575061060481610416610f6c565b6106205760405162461bcd60e51b815260040161057290612196565b61062b838383610f70565b505050565b610638610f6c565b6001600160a01b0316610649610add565b6001600160a01b03161461066f5760405162461bcd60e51b815260040161057290612284565b600d805461ffff191661ffff92909216919091179055565b60005490565b61062b838383610fcc565b60006106a383610a38565b82106106c15760405162461bcd60e51b815260040161057290611e9c565b60006106cb610687565b905060008060005b83811015610775576000818152600360209081526040918290208251808401909352546001600160a01b038116808452600160a01b90910467ffffffffffffffff16918301919091521561072657805192505b876001600160a01b0316836001600160a01b0316141561076257868414156107545750935061078e92505050565b8361075e8161272b565b9450505b508061076d8161272b565b9150506106d3565b5060405162461bcd60e51b815260040161057290612486565b92915050565b60095481565b600b5481565b6107a8610f6c565b6001600160a01b03166107b9610add565b6001600160a01b0316146107df5760405162461bcd60e51b815260040161057290612284565b600d805462ff0000198116620100009182900460ff1615909102179055565b610806610f6c565b6001600160a01b0316610817610add565b6001600160a01b03161461083d5760405162461bcd60e51b815260040161057290612284565b600d5462010000900460ff161561085357600080fd5b600a546108609082612746565b1561087d5760405162461bcd60e51b815260040161057290612151565b600c5481610889610687565b6108939190612642565b11156108b15760405162461bcd60e51b815260040161057290611f6e565b6000600a54826108c1919061265a565b905060005b8181101561062b576108da33600a546112e0565b806108e48161272b565b9150506108c6565b61062b83838360405180602001604052806000815250610bcf565b60108054610914906126f0565b80601f0160208091040260200160405190810160405280929190818152602001828054610940906126f0565b801561098d5780601f106109625761010080835404028352916020019161098d565b820191906000526020600020905b81548152906001019060200180831161097057829003601f168201915b505050505081565b61099d610f6c565b6001600160a01b03166109ae610add565b6001600160a01b0316146109d45760405162461bcd60e51b815260040161057290612284565b80516109e790600f90602084019061196c565b5050565b60006109f5610687565b8210610a135760405162461bcd60e51b815260040161057290611fef565b5090565b600d5462010000900460ff1681565b6000610a31826112fa565b5192915050565b60006001600160a01b038216610a605760405162461bcd60e51b8152600401610572906121f3565b506001600160a01b03166000908152600460205260409020546001600160801b031690565b610a8d610f6c565b6001600160a01b0316610a9e610add565b6001600160a01b031614610ac45760405162461bcd60e51b815260040161057290612284565b610ace600061140d565b565b600f8054610914906126f0565b6008546001600160a01b031690565b600a5481565b6060600280546104c8906126f0565b610b09610f6c565b6001600160a01b0316826001600160a01b03161415610b3a5760405162461bcd60e51b8152600401610572906122b9565b8060066000610b47610f6c565b6001600160a01b03908116825260208083019390935260409182016000908120918716808252919093529120805460ff191692151592909217909155610b8b610f6c565b6001600160a01b03167f17307eab39ab6107e8899845ad3d59bd9653f200f220920489ca2b5937696c3183604051610bc39190611e7e565b60405180910390a35050565b610bda848484610fcc565b610be68484848461145f565b610c025760405162461bcd60e51b8152600401610572906123bb565b50505050565b600d5462010000900460ff1615610c1e57600080fd5b60095481610c2a610687565b610c349190612642565b1115610c525760405162461bcd60e51b815260040161057290611fb8565b600d5461ffff16600214610c785760405162461bcd60e51b815260040161057290612342565b323314610c975760405162461bcd60e51b8152600401610572906125b2565b600b5481610ca43361157b565b610cae9190612642565b1115610ccc5760405162461bcd60e51b8152600401610572906120ff565b610cd633826112e0565b50565b6060600f610ce6836115cf565b6010604051602001610cfa93929190611dfa565b6040516020818303038152906040529050919050565b600c5481565b600d5462010000900460ff1615610d2c57600080fd5b60095481610d38610687565b610d429190612642565b1115610d605760405162461bcd60e51b815260040161057290611fb8565b600d5461ffff16600114610d865760405162461bcd60e51b815260040161057290612342565b336000908152600e602052604090205460ff16610db55760405162461bcd60e51b815260040161057290612077565b323314610dd45760405162461bcd60e51b8152600401610572906125b2565b600a5481610ca43361157b565b60075481565b6001600160a01b03918216600090815260066020908152604080832093909416825291909152205460ff1690565b610e1d610f6c565b6001600160a01b0316610e2e610add565b6001600160a01b031614610e545760405162461bcd60e51b815260040161057290612284565b6001600160a01b038116610e7a5760405162461bcd60e51b815260040161057290611ede565b610cd68161140d565b610e8b610f6c565b6001600160a01b0316610e9c610add565b6001600160a01b031614610ec25760405162461bcd60e51b815260040161057290612284565b60005b8181101561062b576001600e6000858585818110610ef357634e487b7160e01b600052603260045260246000fd5b9050602002016020810190610f089190611aa5565b6001600160a01b031681526020810191909152604001600020805460ff191691151591909117905580610f3a8161272b565b915050610ec5565b600d5461ffff1681565b6001600160e01b031981166301ffc9a760e01b14919050565b6000541190565b3390565b60008281526005602052604080822080546001600160a01b0319166001600160a01b0387811691821790925591518593918516917f8c5be1e5ebec7d5bd14f71427d1e84f3dd0314c0f7b2291e5b200ac8c7c3b92591a4505050565b6000610fd7826112fa565b9050600081600001516001600160a01b0316610ff1610f6c565b6001600160a01b031614806110265750611009610f6c565b6001600160a01b031661101b8461054b565b6001600160a01b0316145b8061103a5750815161103a90610416610f6c565b9050806110595760405162461bcd60e51b8152600401610572906122f0565b846001600160a01b031682600001516001600160a01b03161461108e5760405162461bcd60e51b81526004016105729061223e565b6001600160a01b0384166110b45760405162461bcd60e51b815260040161057290612032565b6110c18585856001610c02565b6110d16000848460000151610f70565b6001600160a01b03851660009081526004602052604081208054600192906111039084906001600160801b031661266e565b82546101009290920a6001600160801b038181021990931691831602179091556001600160a01b0386166000908152600460205260408120805460019450909261114f91859116612617565b82546001600160801b039182166101009390930a9283029190920219909116179055506040805180820182526001600160a01b03808716825267ffffffffffffffff428116602080850191825260008981526003909152948520935184549151909216600160a01b0267ffffffffffffffff60a01b19929093166001600160a01b031990911617161790556111e5846001612642565b6000818152600360205260409020549091506001600160a01b031661128a5761120d81610f65565b1561128a5760408051808201825284516001600160a01b03908116825260208087015167ffffffffffffffff90811682850190815260008781526003909352949091209251835494516001600160a01b031990951692169190911767ffffffffffffffff60a01b1916600160a01b93909116929092029190911790555b83856001600160a01b0316876001600160a01b03167fddf252ad1be2c89b69c2b068fc378daa952ba7f163c4a11628f55a4df523b3ef60405160405180910390a46112d88686866001610c02565b505050505050565b6109e78282604051806020016040528060008152506116ea565b6113026119ec565b61130b82610f65565b6113275760405162461bcd60e51b815260040161057290611f24565b60007f000000000000000000000000000000000000000000000000000000000000000083106113885761137a7f000000000000000000000000000000000000000000000000000000000000000084612696565b611385906001612642565b90505b825b8181106113f4576000818152600360209081526040918290208251808401909352546001600160a01b038116808452600160a01b90910467ffffffffffffffff1691830191909152156113e15792506104b4915050565b50806113ec816126d9565b91505061138a565b5060405162461bcd60e51b8152600401610572906124d4565b600880546001600160a01b038381166001600160a01b0319831681179093556040519116919082907f8be0079c531659141344cd1fd0a4f28419497f9722a3daafe3b4186f6b6457e090600090a35050565b6000611473846001600160a01b031661195d565b1561156f57836001600160a01b031663150b7a0261148f610f6c565b8786866040518563ffffffff1660e01b81526004016114b19493929190611e41565b602060405180830381600087803b1580156114cb57600080fd5b505af19250505080156114fb575060408051601f3d908101601f191682019092526114f891810190611c9a565b60015b611555573d808015611529576040519150601f19603f3d011682016040523d82523d6000602084013e61152e565b606091505b50805161154d5760405162461bcd60e51b8152600401610572906123bb565b805181602001fd5b6001600160e01b031916630a85bd0160e11b149050611573565b5060015b949350505050565b60006001600160a01b0382166115a35760405162461bcd60e51b8152600401610572906120ae565b506001600160a01b0316600090815260046020526040902054600160801b90046001600160801b031690565b6060816115f457506040805180820190915260018152600360fc1b60208201526104b4565b8160005b811561161e57806116088161272b565b91506116179050600a8361265a565b91506115f8565b60008167ffffffffffffffff81111561164757634e487b7160e01b600052604160045260246000fd5b6040519080825280601f01601f191660200182016040528015611671576020820181803683370190505b5090505b841561157357611686600183612696565b9150611693600a86612746565b61169e906030612642565b60f81b8183815181106116c157634e487b7160e01b600052603260045260246000fd5b60200101906001600160f81b031916908160001a9053506116e3600a8661265a565b9450611675565b6000546001600160a01b0384166117135760405162461bcd60e51b815260040161057290612445565b61171c81610f65565b156117395760405162461bcd60e51b81526004016105729061240e565b7f00000000000000000000000000000000000000000000000000000000000000008311156117795760405162461bcd60e51b815260040161057290612570565b6117866000858386610c02565b6001600160a01b0384166000908152600460209081526040918290208251808401845290546001600160801b038082168352600160801b90910416918101919091528151808301909252805190919081906117e2908790612617565b6001600160801b031681526020018583602001516118009190612617565b6001600160801b039081169091526001600160a01b03808816600081815260046020908152604080832087518154988401518816600160801b029088166fffffffffffffffffffffffffffffffff1990991698909817909616969096179094558451808601865291825267ffffffffffffffff4281168386019081528883526003909552948120915182549451909516600160a01b0267ffffffffffffffff60a01b19959093166001600160a01b031990941693909317939093161790915582905b8581101561194b5760405182906001600160a01b038916906000907fddf252ad1be2c89b69c2b068fc378daa952ba7f163c4a11628f55a4df523b3ef908290a461190f600088848861145f565b61192b5760405162461bcd60e51b8152600401610572906123bb565b816119358161272b565b92505080806119439061272b565b9150506118c2565b5060008181556112d890878588610c02565b6001600160a01b03163b151590565b828054611978906126f0565b90600052602060002090601f01602090048101928261199a57600085556119e0565b82601f106119b357805160ff19168380011785556119e0565b828001600101855582156119e0579182015b828111156119e05782518255916020019190600101906119c5565b50610a13929150611a03565b604080518082019091526000808252602082015290565b5b80821115610a135760008155600101611a04565b600067ffffffffffffffff80841115611a3357611a33612786565b604051601f8501601f19908116603f01168101908282118183101715611a5b57611a5b612786565b81604052809350858152868686011115611a7457600080fd5b858560208301376000602087830101525050509392505050565b80356001600160a01b03811681146104b457600080fd5b600060208284031215611ab6578081fd5b611abf82611a8e565b9392505050565b60008060408385031215611ad8578081fd5b611ae183611a8e565b9150611aef60208401611a8e565b90509250929050565b600080600060608486031215611b0c578081fd5b611b1584611a8e565b9250611b2360208501611a8e565b9150604084013590509250925092565b60008060008060808587031215611b48578081fd5b611b5185611a8e565b9350611b5f60208601611a8e565b925060408501359150606085013567ffffffffffffffff811115611b81578182fd5b8501601f81018713611b91578182fd5b611ba087823560208401611a18565b91505092959194509250565b60008060408385031215611bbe578182fd5b611bc783611a8e565b915060208301358015158114611bdb578182fd5b809150509250929050565b60008060408385031215611bf8578182fd5b611c0183611a8e565b946020939093013593505050565b60008060208385031215611c21578182fd5b823567ffffffffffffffff80821115611c38578384fd5b818501915085601f830112611c4b578384fd5b813581811115611c59578485fd5b8660208083028501011115611c6c578485fd5b60209290920196919550909350505050565b600060208284031215611c8f578081fd5b8135611abf8161279c565b600060208284031215611cab578081fd5b8151611abf8161279c565b600060208284031215611cc7578081fd5b813567ffffffffffffffff811115611cdd578182fd5b8201601f81018413611ced578182fd5b61157384823560208401611a18565b600060208284031215611d0d578081fd5b813561ffff81168114611abf578182fd5b600060208284031215611d2f578081fd5b5035919050565b60008151808452611d4e8160208601602086016126ad565b601f01601f19169290920160200192915050565b805460009060028104600180831680611d7c57607f831692505b6020808410821415611d9c57634e487b7160e01b86526022600452602486fd5b818015611db05760018114611dc157611dee565b60ff19861689528489019650611dee565b611dca8861260b565b60005b86811015611de65781548b820152908501908301611dcd565b505084890196505b50505050505092915050565b6000611e068286611d62565b8451611e168183602089016126ad565b611e2281830186611d62565b979650505050505050565b6001600160a01b0391909116815260200190565b6001600160a01b0385811682528416602082015260408101839052608060608201819052600090611e7490830184611d36565b9695505050505050565b901515815260200190565b600060208252611abf6020830184611d36565b60208082526022908201527f455243373231413a206f776e657220696e646578206f7574206f6620626f756e604082015261647360f01b606082015260800190565b60208082526026908201527f4f776e61626c653a206e6577206f776e657220697320746865207a65726f206160408201526564647265737360d01b606082015260800190565b6020808252602a908201527f455243373231413a206f776e657220717565727920666f72206e6f6e657869736040820152693a32b73a103a37b5b2b760b11b606082015260800190565b6020808252602a908201527f5175616e746974792065786365656473206e756d626572206f6620726573657260408201526976656420746f6b656e7360b01b606082015260800190565b6020808252601b908201527f416c6c207368617264732068617665206265656e206d696e7465640000000000604082015260600190565b60208082526023908201527f455243373231413a20676c6f62616c20696e646578206f7574206f6620626f756040820152626e647360e81b606082015260800190565b60208082526025908201527f455243373231413a207472616e7366657220746f20746865207a65726f206164604082015264647265737360d81b606082015260800190565b6020808252601a908201527f41646472657373206973206e6f742077686974656c6973746564000000000000604082015260600190565b60208082526031908201527f455243373231413a206e756d626572206d696e74656420717565727920666f7260408201527020746865207a65726f206164647265737360781b606082015260800190565b60208082526032908201527f41646472657373206973206e6f7420616c6c6f77656420746f206d696e74206d6040820152710dee4ca40e8d0c2dc409a82b0be8482a886960731b606082015260800190565b60208082526025908201527f43616e206f6e6c79206d696e742061206d756c7469706c65206f66204d41585f60408201526408482a886960db1b606082015260800190565b60208082526039908201527f455243373231413a20617070726f76652063616c6c6572206973206e6f74206f60408201527f776e6572206e6f7220617070726f76656420666f7220616c6c00000000000000606082015260800190565b6020808252602b908201527f455243373231413a2062616c616e636520717565727920666f7220746865207a60408201526a65726f206164647265737360a81b606082015260800190565b60208082526026908201527f455243373231413a207472616e736665722066726f6d20696e636f72726563746040820152651037bbb732b960d11b606082015260800190565b6020808252818101527f4f776e61626c653a2063616c6c6572206973206e6f7420746865206f776e6572604082015260600190565b6020808252601a908201527f455243373231413a20617070726f766520746f2063616c6c6572000000000000604082015260600190565b60208082526032908201527f455243373231413a207472616e736665722063616c6c6572206973206e6f74206040820152711bdddb995c881b9bdc88185c1c1c9bdd995960721b606082015260800190565b6020808252601a908201527f53616c652069732063757272656e746c7920696e616374697665000000000000604082015260600190565b60208082526022908201527f455243373231413a20617070726f76616c20746f2063757272656e74206f776e60408201526132b960f11b606082015260800190565b60208082526033908201527f455243373231413a207472616e7366657220746f206e6f6e204552433732315260408201527232b1b2b4bb32b91034b6b83632b6b2b73a32b960691b606082015260800190565b6020808252601d908201527f455243373231413a20746f6b656e20616c7265616479206d696e746564000000604082015260600190565b60208082526021908201527f455243373231413a206d696e7420746f20746865207a65726f206164647265736040820152607360f81b606082015260800190565b6020808252602e908201527f455243373231413a20756e61626c6520746f2067657420746f6b656e206f662060408201526d0deeedccae440c4f240d2dcc8caf60931b606082015260800190565b6020808252602f908201527f455243373231413a20756e61626c6520746f2064657465726d696e652074686560408201526e1037bbb732b91037b3103a37b5b2b760891b606082015260800190565b6020808252602d908201527f455243373231413a20617070726f76656420717565727920666f72206e6f6e6560408201526c3c34b9ba32b73a103a37b5b2b760991b606082015260800190565b60208082526022908201527f455243373231413a207175616e7469747920746f206d696e7420746f6f2068696040820152610ced60f31b606082015260800190565b60208082526021908201527f436f6e74726163747320617265206e6f7420616c6c6f77656420746f206d696e6040820152601d60fa1b606082015260800190565b61ffff91909116815260200190565b90815260200190565b60009081526020902090565b60006001600160801b038083168185168083038211156126395761263961275a565b01949350505050565b600082198211156126555761265561275a565b500190565b60008261266957612669612770565b500490565b60006001600160801b038381169083168181101561268e5761268e61275a565b039392505050565b6000828210156126a8576126a861275a565b500390565b60005b838110156126c85781810151838201526020016126b0565b83811115610c025750506000910152565b6000816126e8576126e861275a565b506000190190565b60028104600182168061270457607f821691505b6020821081141561272557634e487b7160e01b600052602260045260246000fd5b50919050565b600060001982141561273f5761273f61275a565b5060010190565b60008261275557612755612770565b500690565b634e487b7160e01b600052601160045260246000fd5b634e487b7160e01b600052601260045260246000fd5b634e487b7160e01b600052604160045260246000fd5b6001600160e01b031981168114610cd657600080fdfea2646970667358221220896a287b4d9645c9b9bd32767ba63e29cf7dac6a2e18e878002b67126d3b47c664736f6c63430008010033697066733a2f2f516d614b42536e5168644d474269454c69724770546761613871634845313744516235646f37526a69716f6f38462f",
  "linkReferences": {},
  "deployedLinkReferences": {}
}