{
  "_format": "hh-sol-artifact-1",
  "contractName": "EAP",
  "sourceName": "contracts/EAP.sol",
  "abi": [
    {
      "inputs": [],
      "stateMutability": "nonpayable",
      "type": "constructor"
    },
    {
      "anonymous": false,
      "inputs": [
        {
          "indexed": true,
          "internalType": "address",
          "name": "owner",
          "type": "address"
        },
        {
          "indexed": true,
          "internalType": "address",
          "name": "approved",
          "type": "address"
        },
        {
          "indexed": true,
          "internalType": "uint256",
          "name": "tokenId",
          "type": "uint256"
        }
      ],
      "name": "Approval",
      "type": "event"
    },
    {
      "anonymous": false,
      "inputs": [
        {
          "indexed": true,
          "internalType": "address",
          "name": "owner",
          "type": "address"
        },
        {
          "indexed": true,
          "internalType": "address",
          "name": "operator",
          "type": "address"
        },
        {
          "indexed": false,
          "internalType": "bool",
          "name": "approved",
          "type": "bool"
        }
      ],
      "name": "ApprovalForAll",
      "type": "event"
    },
    {
      "anonymous": false,
      "inputs": [
        {
          "indexed": true,
          "internalType": "address",
          "name": "previousOwner",
          "type": "address"
        },
        {
          "indexed": true,
          "internalType": "address",
          "name": "newOwner",
          "type": "address"
        }
      ],
      "name": "OwnershipTransferred",
      "type": "event"
    },
    {
      "anonymous": false,
      "inputs": [
        {
          "indexed": true,
          "internalType": "address",
          "name": "from",
          "type": "address"
        },
        {
          "indexed": true,
          "internalType": "address",
          "name": "to",
          "type": "address"
        },
        {
          "indexed": true,
          "internalType": "uint256",
          "name": "tokenId",
          "type": "uint256"
        }
      ],
      "name": "Transfer",
      "type": "event"
    },
    {
      "inputs": [],
      "name": "BASE_URL",
      "outputs": [
        {
          "internalType": "string",
          "name": "",
          "type": "string"
        }
      ],
      "stateMutability": "view",
      "type": "function"
    },
    {
      "inputs": [],
      "name": "DEV",
      "outputs": [
        {
          "internalType": "address",
          "name": "",
          "type": "address"
        }
      ],
      "stateMutability": "view",
      "type": "function"
    },
    {
      "inputs": [],
      "name": "EXTENSION",
      "outputs": [
        {
          "internalType": "bytes32",
          "name": "",
          "type": "bytes32"
        }
      ],
      "stateMutability": "view",
      "type": "function"
    },
    {
      "inputs": [],
      "name": "GIVEAWAYS",
      "outputs": [
        {
          "internalType": "uint256",
          "name": "",
          "type": "uint256"
        }
      ],
      "stateMutability": "view",
      "type": "function"
    },
    {
      "inputs": [],
      "name": "MAX_BATCH",
      "outputs": [
        {
          "internalType": "uint256",
          "name": "",
          "type": "uint256"
        }
      ],
      "stateMutability": "view",
      "type": "function"
    },
    {
      "inputs": [],
      "name": "MAX_SUPPLY",
      "outputs": [
        {
          "internalType": "uint256",
          "name": "",
          "type": "uint256"
        }
      ],
      "stateMutability": "view",
      "type": "function"
    },
    {
      "inputs": [],
      "name": "PRIMARY",
      "outputs": [
        {
          "internalType": "address",
          "name": "",
          "type": "address"
        }
      ],
      "stateMutability": "view",
      "type": "function"
    },
    {
      "inputs": [],
      "name": "SALE_PRICE",
      "outputs": [
        {
          "internalType": "uint256",
          "name": "",
          "type": "uint256"
        }
      ],
      "stateMutability": "view",
      "type": "function"
    },
    {
      "inputs": [
        {
          "internalType": "address",
          "name": "_account",
          "type": "address"
        }
      ],
      "name": "addAdmin",
      "outputs": [],
      "stateMutability": "nonpayable",
      "type": "function"
    },
    {
      "inputs": [
        {
          "internalType": "address",
          "name": "to",
          "type": "address"
        },
        {
          "internalType": "uint256",
          "name": "tokenId",
          "type": "uint256"
        }
      ],
      "name": "approve",
      "outputs": [],
      "stateMutability": "nonpayable",
      "type": "function"
    },
    {
      "inputs": [
        {
          "internalType": "address",
          "name": "owner",
          "type": "address"
        }
      ],
      "name": "balanceOf",
      "outputs": [
        {
          "internalType": "uint256",
          "name": "",
          "type": "uint256"
        }
      ],
      "stateMutability": "view",
      "type": "function"
    },
    {
      "inputs": [
        {
          "internalType": "uint256",
          "name": "quantity",
          "type": "uint256"
        }
      ],
      "name": "devMint",
      "outputs": [],
      "stateMutability": "nonpayable",
      "type": "function"
    },
    {
      "inputs": [
        {
          "internalType": "uint256",
          "name": "tokenId",
          "type": "uint256"
        }
      ],
      "name": "getApproved",
      "outputs": [
        {
          "internalType": "address",
          "name": "",
          "type": "address"
        }
      ],
      "stateMutability": "view",
      "type": "function"
    },
    {
      "inputs": [
        {
          "internalType": "address",
          "name": "owner",
          "type": "address"
        },
        {
          "internalType": "address",
          "name": "operator",
          "type": "address"
        }
      ],
      "name": "isApprovedForAll",
      "outputs": [
        {
          "internalType": "bool",
          "name": "",
          "type": "bool"
        }
      ],
      "stateMutability": "view",
      "type": "function"
    },
    {
      "inputs": [],
      "name": "name",
      "outputs": [
        {
          "internalType": "string",
          "name": "",
          "type": "string"
        }
      ],
      "stateMutability": "view",
      "type": "function"
    },
    {
      "inputs": [],
      "name": "nextOwnerToExplicitlySet",
      "outputs": [
        {
          "internalType": "uint256",
          "name": "",
          "type": "uint256"
        }
      ],
      "stateMutability": "view",
      "type": "function"
    },
    {
      "inputs": [],
      "name": "owner",
      "outputs": [
        {
          "internalType": "address",
          "name": "",
          "type": "address"
        }
      ],
      "stateMutability": "view",
      "type": "function"
    },
    {
      "inputs": [
        {
          "internalType": "uint256",
          "name": "tokenId",
          "type": "uint256"
        }
      ],
      "name": "ownerOf",
      "outputs": [
        {
          "internalType": "address",
          "name": "",
          "type": "address"
        }
      ],
      "stateMutability": "view",
      "type": "function"
    },
    {
      "inputs": [],
      "name": "paused",
      "outputs": [
        {
          "internalType": "bool",
          "name": "",
          "type": "bool"
        }
      ],
      "stateMutability": "view",
      "type": "function"
    },
    {
      "inputs": [
        {
          "internalType": "uint256",
          "name": "quantity",
          "type": "uint256"
        }
      ],
      "name": "presale",
      "outputs": [],
      "stateMutability": "payable",
      "type": "function"
    },
    {
      "inputs": [
        {
          "internalType": "uint256",
          "name": "quantity",
          "type": "uint256"
        }
      ],
      "name": "pubMint",
      "outputs": [],
      "stateMutability": "payable",
      "type": "function"
    },
    {
      "inputs": [
        {
          "internalType": "address",
          "name": "_account",
          "type": "address"
        }
      ],
      "name": "removeAdmin",
      "outputs": [],
      "stateMutability": "nonpayable",
      "type": "function"
    },
    {
      "inputs": [],
      "name": "renounceOwnership",
      "outputs": [],
      "stateMutability": "nonpayable",
      "type": "function"
    },
    {
      "inputs": [
        {
          "internalType": "string",
          "name": "_url",
          "type": "string"
        }
      ],
      "name": "reveal",
      "outputs": [],
      "stateMutability": "nonpayable",
      "type": "function"
    },
    {
      "inputs": [],
      "name": "revealed",
      "outputs": [
        {
          "internalType": "bool",
          "name": "",
          "type": "bool"
        }
      ],
      "stateMutability": "view",
      "type": "function"
    },
    {
      "inputs": [
        {
          "internalType": "address",
          "name": "from",
          "type": "address"
        },
        {
          "internalType": "address",
          "name": "to",
          "type": "address"
        },
        {
          "internalType": "uint256",
          "name": "tokenId",
          "type": "uint256"
        }
      ],
      "name": "safeTransferFrom",
      "outputs": [],
      "stateMutability": "nonpayable",
      "type": "function"
    },
    {
      "inputs": [
        {
          "internalType": "address",
          "name": "from",
          "type": "address"
        },
        {
          "internalType": "address",
          "name": "to",
          "type": "address"
        },
        {
          "internalType": "uint256",
          "name": "tokenId",
          "type": "uint256"
        },
        {
          "internalType": "bytes",
          "name": "_data",
          "type": "bytes"
        }
      ],
      "name": "safeTransferFrom",
      "outputs": [],
      "stateMutability": "nonpayable",
      "type": "function"
    },
    {
      "inputs": [],
      "name": "sale_state",
      "outputs": [
        {
          "internalType": "uint16",
          "name": "",
          "type": "uint16"
        }
      ],
      "stateMutability": "view",
      "type": "function"
    },
    {
      "inputs": [
        {
          "internalType": "address",
          "name": "operator",
          "type": "address"
        },
        {
          "internalType": "bool",
          "name": "approved",
          "type": "bool"
        }
      ],
      "name": "setApprovalForAll",
      "outputs": [],
      "stateMutability": "nonpayable",
      "type": "function"
    },
    {
      "inputs": [
        {
          "internalType": "string",
          "name": "_url",
          "type": "string"
        }
      ],
      "name": "setBaseURL",
      "outputs": [],
      "stateMutability": "nonpayable",
      "type": "function"
    },
    {
      "inputs": [
        {
          "internalType": "address",
          "name": "_primary",
          "type": "address"
        }
      ],
      "name": "setPrimaryAddress",
      "outputs": [],
      "stateMutability": "nonpayable",
      "type": "function"
    },
    {
      "inputs": [
        {
          "internalType": "uint256",
          "name": "_price",
          "type": "uint256"
        }
      ],
      "name": "setSalePrice",
      "outputs": [],
      "stateMutability": "nonpayable",
      "type": "function"
    },
    {
      "inputs": [
        {
          "internalType": "uint16",
          "name": "_sale_state",
          "type": "uint16"
        }
      ],
      "name": "setSaleState",
      "outputs": [],
      "stateMutability": "nonpayable",
      "type": "function"
    },
    {
      "inputs": [
        {
          "internalType": "address[]",
          "name": "addresses",
          "type": "address[]"
        }
      ],
      "name": "setWhitelist",
      "outputs": [],
      "stateMutability": "nonpayable",
      "type": "function"
    },
    {
      "inputs": [
        {
          "internalType": "bytes4",
          "name": "interfaceId",
          "type": "bytes4"
        }
      ],
      "name": "supportsInterface",
      "outputs": [
        {
          "internalType": "bool",
          "name": "",
          "type": "bool"
        }
      ],
      "stateMutability": "view",
      "type": "function"
    },
    {
      "inputs": [],
      "name": "symbol",
      "outputs": [
        {
          "internalType": "string",
          "name": "",
          "type": "string"
        }
      ],
      "stateMutability": "view",
      "type": "function"
    },
    {
      "inputs": [],
      "name": "togglePaused",
      "outputs": [],
      "stateMutability": "nonpayable",
      "type": "function"
    },
    {
      "inputs": [
        {
          "internalType": "uint256",
          "name": "index",
          "type": "uint256"
        }
      ],
      "name": "tokenByIndex",
      "outputs": [
        {
          "internalType": "uint256",
          "name": "",
          "type": "uint256"
        }
      ],
      "stateMutability": "view",
      "type": "function"
    },
    {
      "inputs": [
        {
          "internalType": "address",
          "name": "owner",
          "type": "address"
        },
        {
          "internalType": "uint256",
          "name": "index",
          "type": "uint256"
        }
      ],
      "name": "tokenOfOwnerByIndex",
      "outputs": [
        {
          "internalType": "uint256",
          "name": "",
          "type": "uint256"
        }
      ],
      "stateMutability": "view",
      "type": "function"
    },
    {
      "inputs": [
        {
          "internalType": "uint256",
          "name": "_tokenId",
          "type": "uint256"
        }
      ],
      "name": "tokenURI",
      "outputs": [
        {
          "internalType": "string",
          "name": "",
          "type": "string"
        }
      ],
      "stateMutability": "view",
      "type": "function"
    },
    {
      "inputs": [],
      "name": "totalSupply",
      "outputs": [
        {
          "internalType": "uint256",
          "name": "",
          "type": "uint256"
        }
      ],
      "stateMutability": "view",
      "type": "function"
    },
    {
      "inputs": [
        {
          "internalType": "address",
          "name": "from",
          "type": "address"
        },
        {
          "internalType": "address",
          "name": "to",
          "type": "address"
        },
        {
          "internalType": "uint256",
          "name": "tokenId",
          "type": "uint256"
        }
      ],
      "name": "transferFrom",
      "outputs": [],
      "stateMutability": "nonpayable",
      "type": "function"
    },
    {
      "inputs": [
        {
          "internalType": "address",
          "name": "newOwner",
          "type": "address"
        }
      ],
      "name": "transferOwnership",
      "outputs": [],
      "stateMutability": "nonpayable",
      "type": "function"
    },
    {
      "inputs": [],
      "name": "withdraw",
      "outputs": [],
      "stateMutability": "payable",
      "type": "function"
    }
  ],
  "bytecode": "0x6000808055600755610bb86009556005600a55661c6bf526340000600b55600f600c55610140604052604560c081815290620031cf60e03980516200004d91600e916020909101906200020c565b5064173539b7b760d91b600f5560108054610100600160a81b03191674103ece5b498b9c425295f58148aa5bdac7575708001790553480156200008f57600080fd5b506040518060400160405280601d81526020017f446567656e20416765204561726c792041646f707465727320506173730000008152506040518060400160405280600381526020016204541560ec1b815250600a5460095460008111620001145760405162461bcd60e51b81526004016200010b90620002f9565b60405180910390fd5b60008211620001375760405162461bcd60e51b81526004016200010b90620002b2565b83516200014c9060019060208701906200020c565b508251620001629060029060208601906200020c565b5060a091909152608052506200018390506200017d620001b6565b620001ba565b336000818152601260205260409020805460ff19166001179055601180546001600160a01b031916909117905562000384565b3390565b600880546001600160a01b038381166001600160a01b0319831681179093556040519116919082907f8be0079c531659141344cd1fd0a4f28419497f9722a3daafe3b4186f6b6457e090600090a35050565b8280546200021a9062000347565b90600052602060002090601f0160209004810192826200023e576000855562000289565b82601f106200025957805160ff191683800117855562000289565b8280016001018555821562000289579182015b82811115620002895782518255916020019190600101906200026c565b50620002979291506200029b565b5090565b5b808211156200029757600081556001016200029c565b60208082526027908201527f455243373231413a206d61782062617463682073697a65206d757374206265206040820152666e6f6e7a65726f60c81b606082015260800190565b6020808252602e908201527f455243373231413a20636f6c6c656374696f6e206d757374206861766520612060408201526d6e6f6e7a65726f20737570706c7960901b606082015260800190565b6002810460018216806200035c57607f821691505b602082108114156200037e57634e487b7160e01b600052602260045260246000fd5b50919050565b60805160a051612e1a620003b5600039600081816118750152818161189f0152611c85015260005050612e1a6000f3fe6080604052600436106102675760003560e01c80636352211e11610144578063c1d9df8d116100b6578063d7224ba01161007a578063d7224ba014610696578063e6ab1434146106ab578063e985e9c5146106be578063f2fde38b146106de578063f4217648146106fe578063f5e1713e1461071e57610267565b8063c1d9df8d14610619578063c1eb5ddd1461062c578063c87b56dd14610641578063ce2a86f014610661578063d51eeafd1461067657610267565b80637f78636a116101085780637f78636a146105855780638da5cb5b1461059a578063950bff9f146105af57806395d89b41146105c4578063a22cb465146105d9578063b88d4fde146105f957610267565b80636352211e146104fb578063704802751461051b57806370a082311461053b578063715018a61461055b5780637f205a741461057057610267565b806332cb6b0c116101dd57806346f13619116101a157806346f136191461045c57806349f2553a146104715780634c261247146104915780634f6ccce7146104b157806351830227146104d15780635c975abb146104e657610267565b806332cb6b0c146103ea57806336566f06146103ff578063375a069a146104145780633ccfd60b1461043457806342842e0e1461043c57610267565b80631438ddee1161022f5780631438ddee146103285780631785f53c1461034857806318160ddd146103685780631919fed71461038a57806323b872dd146103aa5780632f745c59146103ca57610267565b806301ffc9a71461026c578063062fa1f8146102a257806306fdde03146102c4578063081812fc146102e6578063095ea7b314610306575b600080fd5b34801561027857600080fd5b5061028c6102873660046121c8565b610740565b60405161029991906123c7565b60405180910390f35b3480156102ae57600080fd5b506102b76107a3565b6040516102999190612376565b3480156102d057600080fd5b506102d96107b7565b60405161029991906123db565b3480156102f257600080fd5b506102b7610301366004612268565b610849565b34801561031257600080fd5b50610326610321366004612130565b610895565b005b34801561033457600080fd5b50610326610343366004612246565b61092e565b34801561035457600080fd5b50610326610363366004611fef565b610962565b34801561037457600080fd5b5061037d6109d7565b60405161029991906123d2565b34801561039657600080fd5b506103266103a5366004612268565b6109dd565b3480156103b657600080fd5b506103266103c5366004612042565b6109fe565b3480156103d657600080fd5b5061037d6103e5366004612130565b610a09565b3480156103f657600080fd5b5061037d610b05565b34801561040b57600080fd5b50610326610b0b565b34801561042057600080fd5b5061032661042f366004612268565b610b46565b610326610c3b565b34801561044857600080fd5b50610326610457366004612042565b610ccd565b34801561046857600080fd5b5061037d610ce8565b34801561047d57600080fd5b5061032661048c366004612200565b610cee565b34801561049d57600080fd5b506103266104ac366004612200565b610d21565b3480156104bd57600080fd5b5061037d6104cc366004612268565b610d61565b3480156104dd57600080fd5b5061028c610d8d565b3480156104f257600080fd5b5061028c610d96565b34801561050757600080fd5b506102b7610516366004612268565b610da5565b34801561052757600080fd5b50610326610536366004611fef565b610db7565b34801561054757600080fd5b5061037d610556366004611fef565b610e30565b34801561056757600080fd5b50610326610e7d565b34801561057c57600080fd5b5061037d610ec8565b34801561059157600080fd5b506102d9610ece565b3480156105a657600080fd5b506102b7610f5c565b3480156105bb57600080fd5b5061037d610f6b565b3480156105d057600080fd5b506102d9610f71565b3480156105e557600080fd5b506103266105f43660046120f6565b610f80565b34801561060557600080fd5b5061032661061436600461207d565b61104e565b610326610627366004612268565b611087565b34801561063857600080fd5b506102b7611181565b34801561064d57600080fd5b506102d961065c366004612268565b611190565b34801561066d57600080fd5b5061037d611264565b34801561068257600080fd5b50610326610691366004611fef565b61126a565b3480156106a257600080fd5b5061037d6112ae565b6103266106b9366004612268565b6112b4565b3480156106ca57600080fd5b5061028c6106d9366004612010565b611353565b3480156106ea57600080fd5b506103266106f9366004611fef565b611381565b34801561070a57600080fd5b50610326610719366004612159565b6113ef565b34801561072a57600080fd5b5061073361148c565b6040516102999190612c0f565b60006001600160e01b031982166380ac58cd60e01b148061077157506001600160e01b03198216635b5e139f60e01b145b8061078c57506001600160e01b0319821663780e9d6360e01b145b8061079b575061079b82611496565b90505b919050565b60105461010090046001600160a01b031681565b6060600180546107c690612d22565b80601f01602080910402602001604051908101604052809291908181526020018280546107f290612d22565b801561083f5780601f106108145761010080835404028352916020019161083f565b820191906000526020600020905b81548152906001019060200180831161082257829003601f168201915b5050505050905090565b6000610854826114af565b6108795760405162461bcd60e51b815260040161087090612b3f565b60405180910390fd5b506000908152600560205260409020546001600160a01b031690565b60006108a082610da5565b9050806001600160a01b0316836001600160a01b031614156108d45760405162461bcd60e51b815260040161087090612930565b806001600160a01b03166108e66114b6565b6001600160a01b031614806109025750610902816106d96114b6565b61091e5760405162461bcd60e51b81526004016108709061274d565b6109298383836114ba565b505050565b3360009081526012602052604090205460ff1661094a57600080fd5b600d805461ffff191661ffff92909216919091179055565b3360009081526012602052604090205460ff1661097e57600080fd5b6001600160a01b03811660009081526012602052604090205460ff166109b65760405162461bcd60e51b8152600401610870906124c0565b6001600160a01b03166000908152601260205260409020805460ff19169055565b60005490565b3360009081526012602052604090205460ff166109f957600080fd5b600b55565b610929838383611516565b6000610a1483610e30565b8210610a325760405162461bcd60e51b8152600401610870906123ee565b6000610a3c6109d7565b905060008060005b83811015610ae6576000818152600360209081526040918290208251808401909352546001600160a01b038116808452600160a01b90910467ffffffffffffffff169183019190915215610a9757805192505b876001600160a01b0316836001600160a01b03161415610ad35786841415610ac557509350610aff92505050565b83610acf81612d5d565b9450505b5080610ade81612d5d565b915050610a44565b5060405162461bcd60e51b815260040161087090612aa2565b92915050565b60095481565b3360009081526012602052604090205460ff16610b2757600080fd5b600d805462ff0000198116620100009182900460ff1615909102179055565b3360009081526012602052604090205460ff16610b6257600080fd5b600d5462010000900460ff1615610b7857600080fd5b6011546001600160a01b03163314610ba25760405162461bcd60e51b815260040161087090612972565b600a54610baf9082612d78565b15610bcc5760405162461bcd60e51b81526004016108709061269a565b600c5481610bd86109d7565b610be29190612c55565b1115610c005760405162461bcd60e51b8152600401610870906124ee565b6000600a5482610c109190612c6d565b905060005b8181101561092957610c2933600a5461182a565b80610c3381612d5d565b915050610c15565b3360009081526012602052604090205460ff16610c5757600080fd5b60105460405160009161010090046001600160a01b0316904790610c7a90612373565b60006040518083038185875af1925050503d8060008114610cb7576040519150601f19603f3d011682016040523d82523d6000602084013e610cbc565b606091505b5050905080610cca57600080fd5b50565b6109298383836040518060200160405280600081525061104e565b600f5481565b3360009081526012602052604090205460ff16610d0a57600080fd5b8051610d1d90600e906020840190611eb6565b5050565b3360009081526012602052604090205460ff16610d3d57600080fd5b8051610d5090600e906020840190611eb6565b50506010805460ff19166001179055565b6000610d6b6109d7565b8210610d895760405162461bcd60e51b81526004016108709061256f565b5090565b60105460ff1681565b600d5462010000900460ff1681565b6000610db082611844565b5192915050565b3360009081526012602052604090205460ff16610dd357600080fd5b6001600160a01b03811660009081526012602052604090205460ff1615610e0c5760405162461bcd60e51b815260040161087090612a74565b6001600160a01b03166000908152601260205260409020805460ff19166001179055565b60006001600160a01b038216610e585760405162461bcd60e51b8152600401610870906127aa565b506001600160a01b03166000908152600460205260409020546001600160801b031690565b610e856114b6565b6001600160a01b0316610e96610f5c565b6001600160a01b031614610ebc5760405162461bcd60e51b81526004016108709061283b565b610ec66000611957565b565b600b5481565b600e8054610edb90612d22565b80601f0160208091040260200160405190810160405280929190818152602001828054610f0790612d22565b8015610f545780601f10610f2957610100808354040283529160200191610f54565b820191906000526020600020905b815481529060010190602001808311610f3757829003601f168201915b505050505081565b6008546001600160a01b031690565b600a5481565b6060600280546107c690612d22565b610f886114b6565b6001600160a01b0316826001600160a01b03161415610fb95760405162461bcd60e51b815260040161087090612870565b8060066000610fc66114b6565b6001600160a01b03908116825260208083019390935260409182016000908120918716808252919093529120805460ff19169215159290921790915561100a6114b6565b6001600160a01b03167f17307eab39ab6107e8899845ad3d59bd9653f200f220920489ca2b5937696c318360405161104291906123c7565b60405180910390a35050565b611059848484611516565b611065848484846119a9565b6110815760405162461bcd60e51b8152600401610870906129a9565b50505050565b600d5462010000900460ff161561109d57600080fd5b600954816110a96109d7565b6110b39190612c55565b11156110d15760405162461bcd60e51b815260040161087090612538565b600d5461ffff166002146110f75760405162461bcd60e51b8152600401610870906128f9565b80600b546111059190612c81565b34146111235760405162461bcd60e51b815260040161087090612716565b3233146111425760405162461bcd60e51b815260040161087090612bce565b600a548161114f33611ac5565b6111599190612c55565b11156111775760405162461bcd60e51b815260040161087090612648565b610cca338261182a565b6011546001600160a01b031681565b60105460609060ff16156111d257600e6111a983611b19565b600f546040516020016111be939291906122c8565b60405160208183030381529060405261079b565b600e80546111df90612d22565b80601f016020809104026020016040519081016040528092919081815260200182805461120b90612d22565b80156112585780601f1061122d57610100808354040283529160200191611258565b820191906000526020600020905b81548152906001019060200180831161123b57829003601f168201915b50505050509050919050565b600c5481565b3360009081526012602052604090205460ff1661128657600080fd5b601080546001600160a01b0390921661010002610100600160a81b0319909216919091179055565b60075481565b600d5462010000900460ff16156112ca57600080fd5b600954816112d66109d7565b6112e09190612c55565b11156112fe5760405162461bcd60e51b815260040161087090612538565b600d5461ffff166001146113245760405162461bcd60e51b8152600401610870906128f9565b3360009081526013602052604090205460ff166110f75760405162461bcd60e51b8152600401610870906126df565b6001600160a01b03918216600090815260066020908152604080832093909416825291909152205460ff1690565b6113896114b6565b6001600160a01b031661139a610f5c565b6001600160a01b0316146113c05760405162461bcd60e51b81526004016108709061283b565b6001600160a01b0381166113e65760405162461bcd60e51b815260040161087090612430565b610cca81611957565b3360009081526012602052604090205460ff1661140b57600080fd5b8060005b818110156110815760016013600086868581811061143d57634e487b7160e01b600052603260045260246000fd5b90506020020160208101906114529190611fef565b6001600160a01b031681526020810191909152604001600020805460ff19169115159190911790558061148481612d5d565b91505061140f565b600d5461ffff1681565b6001600160e01b031981166301ffc9a760e01b14919050565b6000541190565b3390565b60008281526005602052604080822080546001600160a01b0319166001600160a01b0387811691821790925591518593918516917f8c5be1e5ebec7d5bd14f71427d1e84f3dd0314c0f7b2291e5b200ac8c7c3b92591a4505050565b600061152182611844565b9050600081600001516001600160a01b031661153b6114b6565b6001600160a01b0316148061157057506115536114b6565b6001600160a01b031661156584610849565b6001600160a01b0316145b8061158457508151611584906106d96114b6565b9050806115a35760405162461bcd60e51b8152600401610870906128a7565b846001600160a01b031682600001516001600160a01b0316146115d85760405162461bcd60e51b8152600401610870906127f5565b6001600160a01b0384166115fe5760405162461bcd60e51b8152600401610870906125b2565b61160b8585856001611081565b61161b60008484600001516114ba565b6001600160a01b038516600090815260046020526040812080546001929061164d9084906001600160801b0316612ca0565b82546101009290920a6001600160801b038181021990931691831602179091556001600160a01b0386166000908152600460205260408120805460019450909261169991859116612c2a565b82546001600160801b039182166101009390930a9283029190920219909116179055506040805180820182526001600160a01b03808716825267ffffffffffffffff428116602080850191825260008981526003909152948520935184549151909216600160a01b0267ffffffffffffffff60a01b19929093166001600160a01b0319909116171617905561172f846001612c55565b6000818152600360205260409020549091506001600160a01b03166117d457611757816114af565b156117d45760408051808201825284516001600160a01b03908116825260208087015167ffffffffffffffff90811682850190815260008781526003909352949091209251835494516001600160a01b031990951692169190911767ffffffffffffffff60a01b1916600160a01b93909116929092029190911790555b83856001600160a01b0316876001600160a01b03167fddf252ad1be2c89b69c2b068fc378daa952ba7f163c4a11628f55a4df523b3ef60405160405180910390a46118228686866001611081565b505050505050565b610d1d828260405180602001604052806000815250611c34565b61184c611f36565b611855826114af565b6118715760405162461bcd60e51b815260040161087090612476565b60007f000000000000000000000000000000000000000000000000000000000000000083106118d2576118c47f000000000000000000000000000000000000000000000000000000000000000084612cc8565b6118cf906001612c55565b90505b825b81811061193e576000818152600360209081526040918290208251808401909352546001600160a01b038116808452600160a01b90910467ffffffffffffffff16918301919091521561192b57925061079e915050565b508061193681612d0b565b9150506118d4565b5060405162461bcd60e51b815260040161087090612af0565b600880546001600160a01b038381166001600160a01b0319831681179093556040519116919082907f8be0079c531659141344cd1fd0a4f28419497f9722a3daafe3b4186f6b6457e090600090a35050565b60006119bd846001600160a01b0316611ea7565b15611ab957836001600160a01b031663150b7a026119d96114b6565b8786866040518563ffffffff1660e01b81526004016119fb949392919061238a565b602060405180830381600087803b158015611a1557600080fd5b505af1925050508015611a45575060408051601f3d908101601f19168201909252611a42918101906121e4565b60015b611a9f573d808015611a73576040519150601f19603f3d011682016040523d82523d6000602084013e611a78565b606091505b508051611a975760405162461bcd60e51b8152600401610870906129a9565b805181602001fd5b6001600160e01b031916630a85bd0160e11b149050611abd565b5060015b949350505050565b60006001600160a01b038216611aed5760405162461bcd60e51b8152600401610870906125f7565b506001600160a01b0316600090815260046020526040902054600160801b90046001600160801b031690565b606081611b3e57506040805180820190915260018152600360fc1b602082015261079e565b8160005b8115611b685780611b5281612d5d565b9150611b619050600a83612c6d565b9150611b42565b60008167ffffffffffffffff811115611b9157634e487b7160e01b600052604160045260246000fd5b6040519080825280601f01601f191660200182016040528015611bbb576020820181803683370190505b5090505b8415611abd57611bd0600183612cc8565b9150611bdd600a86612d78565b611be8906030612c55565b60f81b818381518110611c0b57634e487b7160e01b600052603260045260246000fd5b60200101906001600160f81b031916908160001a905350611c2d600a86612c6d565b9450611bbf565b6000546001600160a01b038416611c5d5760405162461bcd60e51b815260040161087090612a33565b611c66816114af565b15611c835760405162461bcd60e51b8152600401610870906129fc565b7f0000000000000000000000000000000000000000000000000000000000000000831115611cc35760405162461bcd60e51b815260040161087090612b8c565b611cd06000858386611081565b6001600160a01b0384166000908152600460209081526040918290208251808401845290546001600160801b038082168352600160801b9091041691810191909152815180830190925280519091908190611d2c908790612c2a565b6001600160801b03168152602001858360200151611d4a9190612c2a565b6001600160801b039081169091526001600160a01b03808816600081815260046020908152604080832087518154988401518816600160801b029088166fffffffffffffffffffffffffffffffff1990991698909817909616969096179094558451808601865291825267ffffffffffffffff4281168386019081528883526003909552948120915182549451909516600160a01b0267ffffffffffffffff60a01b19959093166001600160a01b031990941693909317939093161790915582905b85811015611e955760405182906001600160a01b038916906000907fddf252ad1be2c89b69c2b068fc378daa952ba7f163c4a11628f55a4df523b3ef908290a4611e5960008884886119a9565b611e755760405162461bcd60e51b8152600401610870906129a9565b81611e7f81612d5d565b9250508080611e8d90612d5d565b915050611e0c565b50600081815561182290878588611081565b6001600160a01b03163b151590565b828054611ec290612d22565b90600052602060002090601f016020900481019282611ee45760008555611f2a565b82601f10611efd57805160ff1916838001178555611f2a565b82800160010185558215611f2a579182015b82811115611f2a578251825591602001919060010190611f0f565b50610d89929150611f4d565b604080518082019091526000808252602082015290565b5b80821115610d895760008155600101611f4e565b600067ffffffffffffffff80841115611f7d57611f7d612db8565b604051601f8501601f19908116603f01168101908282118183101715611fa557611fa5612db8565b81604052809350858152868686011115611fbe57600080fd5b858560208301376000602087830101525050509392505050565b80356001600160a01b038116811461079e57600080fd5b600060208284031215612000578081fd5b61200982611fd8565b9392505050565b60008060408385031215612022578081fd5b61202b83611fd8565b915061203960208401611fd8565b90509250929050565b600080600060608486031215612056578081fd5b61205f84611fd8565b925061206d60208501611fd8565b9150604084013590509250925092565b60008060008060808587031215612092578081fd5b61209b85611fd8565b93506120a960208601611fd8565b925060408501359150606085013567ffffffffffffffff8111156120cb578182fd5b8501601f810187136120db578182fd5b6120ea87823560208401611f62565b91505092959194509250565b60008060408385031215612108578182fd5b61211183611fd8565b915060208301358015158114612125578182fd5b809150509250929050565b60008060408385031215612142578182fd5b61214b83611fd8565b946020939093013593505050565b6000806020838503121561216b578182fd5b823567ffffffffffffffff80821115612182578384fd5b818501915085601f830112612195578384fd5b8135818111156121a3578485fd5b86602080830285010111156121b6578485fd5b60209290920196919550909350505050565b6000602082840312156121d9578081fd5b813561200981612dce565b6000602082840312156121f5578081fd5b815161200981612dce565b600060208284031215612211578081fd5b813567ffffffffffffffff811115612227578182fd5b8201601f81018413612237578182fd5b611abd84823560208401611f62565b600060208284031215612257578081fd5b813561ffff81168114612009578182fd5b600060208284031215612279578081fd5b5035919050565b60008151808452612298816020860160208601612cdf565b601f01601f19169290920160200192915050565b600081516122be818560208601612cdf565b9290920192915050565b83546000908190600281046001808316806122e457607f831692505b602080841082141561230457634e487b7160e01b87526022600452602487fd5b818015612318576001811461232957612355565b60ff19861689528489019650612355565b6123328c612c1e565b885b8681101561234d5781548b820152908501908301612334565b505084890196505b50612360868b6122ac565b9889529097019998505050505050505050565b90565b6001600160a01b0391909116815260200190565b6001600160a01b03858116825284166020820152604081018390526080606082018190526000906123bd90830184612280565b9695505050505050565b901515815260200190565b90815260200190565b6000602082526120096020830184612280565b60208082526022908201527f455243373231413a206f776e657220696e646578206f7574206f6620626f756e604082015261647360f01b606082015260800190565b60208082526026908201527f4f776e61626c653a206e6577206f776e657220697320746865207a65726f206160408201526564647265737360d01b606082015260800190565b6020808252602a908201527f455243373231413a206f776e657220717565727920666f72206e6f6e657869736040820152693a32b73a103a37b5b2b760b11b606082015260800190565b60208082526014908201527310591b5a5b88191bd95cc81b9bdd08195e1a5cdd60621b604082015260600190565b6020808252602a908201527f5175616e746974792065786365656473206e756d626572206f6620726573657260408201526976656420746f6b656e7360b01b606082015260800190565b6020808252601b908201527f416c6c207061737365732068617665206265656e206d696e7465640000000000604082015260600190565b60208082526023908201527f455243373231413a20676c6f62616c20696e646578206f7574206f6620626f756040820152626e647360e81b606082015260800190565b60208082526025908201527f455243373231413a207472616e7366657220746f20746865207a65726f206164604082015264647265737360d81b606082015260800190565b60208082526031908201527f455243373231413a206e756d626572206d696e74656420717565727920666f7260408201527020746865207a65726f206164647265737360781b606082015260800190565b60208082526032908201527f41646472657373206973206e6f7420616c6c6f77656420746f206d696e74206d6040820152710dee4ca40e8d0c2dc409a82b0be8482a886960731b606082015260800190565b60208082526025908201527f43616e206f6e6c79206d696e742061206d756c7469706c65206f66204d41585f60408201526408482a886960db1b606082015260800190565b60208082526017908201527f55736572206973206e6f742077686974656c6973746564000000000000000000604082015260600190565b60208082526019908201527f496e636f727265637420616d6f756e74206f6620457468657200000000000000604082015260600190565b60208082526039908201527f455243373231413a20617070726f76652063616c6c6572206973206e6f74206f60408201527f776e6572206e6f7220617070726f76656420666f7220616c6c00000000000000606082015260800190565b6020808252602b908201527f455243373231413a2062616c616e636520717565727920666f7220746865207a60408201526a65726f206164647265737360a81b606082015260800190565b60208082526026908201527f455243373231413a207472616e736665722066726f6d20696e636f72726563746040820152651037bbb732b960d11b606082015260800190565b6020808252818101527f4f776e61626c653a2063616c6c6572206973206e6f7420746865206f776e6572604082015260600190565b6020808252601a908201527f455243373231413a20617070726f766520746f2063616c6c6572000000000000604082015260600190565b60208082526032908201527f455243373231413a207472616e736665722063616c6c6572206973206e6f74206040820152711bdddb995c881b9bdc88185c1c1c9bdd995960721b606082015260800190565b6020808252601a908201527f53616c652069732063757272656e746c7920696e616374697665000000000000604082015260600190565b60208082526022908201527f455243373231413a20617070726f76616c20746f2063757272656e74206f776e60408201526132b960f11b606082015260800190565b6020808252601f908201527f41646472657373206973206e6f7420616c6c6f77656420746f206d696e742e00604082015260600190565b60208082526033908201527f455243373231413a207472616e7366657220746f206e6f6e204552433732315260408201527232b1b2b4bb32b91034b6b83632b6b2b73a32b960691b606082015260800190565b6020808252601d908201527f455243373231413a20746f6b656e20616c7265616479206d696e746564000000604082015260600190565b60208082526021908201527f455243373231413a206d696e7420746f20746865207a65726f206164647265736040820152607360f81b606082015260800190565b60208082526014908201527341646d696e20616c72656164792065786973747360601b604082015260600190565b6020808252602e908201527f455243373231413a20756e61626c6520746f2067657420746f6b656e206f662060408201526d0deeedccae440c4f240d2dcc8caf60931b606082015260800190565b6020808252602f908201527f455243373231413a20756e61626c6520746f2064657465726d696e652074686560408201526e1037bbb732b91037b3103a37b5b2b760891b606082015260800190565b6020808252602d908201527f455243373231413a20617070726f76656420717565727920666f72206e6f6e6560408201526c3c34b9ba32b73a103a37b5b2b760991b606082015260800190565b60208082526022908201527f455243373231413a207175616e7469747920746f206d696e7420746f6f2068696040820152610ced60f31b606082015260800190565b60208082526021908201527f436f6e74726163747320617265206e6f7420616c6c6f77656420746f206d696e6040820152601d60fa1b606082015260800190565b61ffff91909116815260200190565b60009081526020902090565b60006001600160801b03808316818516808303821115612c4c57612c4c612d8c565b01949350505050565b60008219821115612c6857612c68612d8c565b500190565b600082612c7c57612c7c612da2565b500490565b6000816000190483118215151615612c9b57612c9b612d8c565b500290565b60006001600160801b0383811690831681811015612cc057612cc0612d8c565b039392505050565b600082821015612cda57612cda612d8c565b500390565b60005b83811015612cfa578181015183820152602001612ce2565b838111156110815750506000910152565b600081612d1a57612d1a612d8c565b506000190190565b600281046001821680612d3657607f821691505b60208210811415612d5757634e487b7160e01b600052602260045260246000fd5b50919050565b6000600019821415612d7157612d71612d8c565b5060010190565b600082612d8757612d87612da2565b500690565b634e487b7160e01b600052601160045260246000fd5b634e487b7160e01b600052601260045260246000fd5b634e487b7160e01b600052604160045260246000fd5b6001600160e01b031981168114610cca57600080fdfea2646970667358221220792068bfbc3009bb8ae66b30d94d08563be921ea15de9cd19c38c7380e8d38a664736f6c63430008010033697066733a2f2f516d524e6e7371615032714153595756796255476e51686e5854337172775a5536526f70737653545863366b687a2f756e72657665616c65642e6a736f6e",
  "linkReferences": {},
  "deployedLinkReferences": {}
}