{
  "_format": "hh-sol-artifact-1",
  "contractName": "EAP",
  "sourceName": "contracts/EAP.sol",
  "abi": [
    {
      "inputs": [],
      "stateMutability": "nonpayable",
      "type": "constructor"
    },
    {
      "anonymous": false,
      "inputs": [
        {
          "indexed": true,
          "internalType": "address",
          "name": "owner",
          "type": "address"
        },
        {
          "indexed": true,
          "internalType": "address",
          "name": "approved",
          "type": "address"
        },
        {
          "indexed": true,
          "internalType": "uint256",
          "name": "tokenId",
          "type": "uint256"
        }
      ],
      "name": "Approval",
      "type": "event"
    },
    {
      "anonymous": false,
      "inputs": [
        {
          "indexed": true,
          "internalType": "address",
          "name": "owner",
          "type": "address"
        },
        {
          "indexed": true,
          "internalType": "address",
          "name": "operator",
          "type": "address"
        },
        {
          "indexed": false,
          "internalType": "bool",
          "name": "approved",
          "type": "bool"
        }
      ],
      "name": "ApprovalForAll",
      "type": "event"
    },
    {
      "anonymous": false,
      "inputs": [
        {
          "indexed": true,
          "internalType": "address",
          "name": "previousOwner",
          "type": "address"
        },
        {
          "indexed": true,
          "internalType": "address",
          "name": "newOwner",
          "type": "address"
        }
      ],
      "name": "OwnershipTransferred",
      "type": "event"
    },
    {
      "anonymous": false,
      "inputs": [
        {
          "indexed": true,
          "internalType": "address",
          "name": "from",
          "type": "address"
        },
        {
          "indexed": true,
          "internalType": "address",
          "name": "to",
          "type": "address"
        },
        {
          "indexed": true,
          "internalType": "uint256",
          "name": "tokenId",
          "type": "uint256"
        }
      ],
      "name": "Transfer",
      "type": "event"
    },
    {
      "inputs": [],
      "name": "BASE_URL",
      "outputs": [
        {
          "internalType": "string",
          "name": "",
          "type": "string"
        }
      ],
      "stateMutability": "view",
      "type": "function"
    },
    {
      "inputs": [],
      "name": "EXTENSION",
      "outputs": [
        {
          "internalType": "bytes32",
          "name": "",
          "type": "bytes32"
        }
      ],
      "stateMutability": "view",
      "type": "function"
    },
    {
      "inputs": [],
      "name": "GIVEAWAYS",
      "outputs": [
        {
          "internalType": "uint256",
          "name": "",
          "type": "uint256"
        }
      ],
      "stateMutability": "view",
      "type": "function"
    },
    {
      "inputs": [],
      "name": "MAX_BATCH",
      "outputs": [
        {
          "internalType": "uint256",
          "name": "",
          "type": "uint256"
        }
      ],
      "stateMutability": "view",
      "type": "function"
    },
    {
      "inputs": [],
      "name": "MAX_SUPPLY",
      "outputs": [
        {
          "internalType": "uint256",
          "name": "",
          "type": "uint256"
        }
      ],
      "stateMutability": "view",
      "type": "function"
    },
    {
      "inputs": [],
      "name": "PRIMARY",
      "outputs": [
        {
          "internalType": "address",
          "name": "",
          "type": "address"
        }
      ],
      "stateMutability": "view",
      "type": "function"
    },
    {
      "inputs": [],
      "name": "PUB_KEY",
      "outputs": [
        {
          "internalType": "address",
          "name": "",
          "type": "address"
        }
      ],
      "stateMutability": "view",
      "type": "function"
    },
    {
      "inputs": [],
      "name": "SALE_PRICE",
      "outputs": [
        {
          "internalType": "uint256",
          "name": "",
          "type": "uint256"
        }
      ],
      "stateMutability": "view",
      "type": "function"
    },
    {
      "inputs": [
        {
          "internalType": "address",
          "name": "to",
          "type": "address"
        },
        {
          "internalType": "uint256",
          "name": "tokenId",
          "type": "uint256"
        }
      ],
      "name": "approve",
      "outputs": [],
      "stateMutability": "nonpayable",
      "type": "function"
    },
    {
      "inputs": [
        {
          "internalType": "address",
          "name": "owner",
          "type": "address"
        }
      ],
      "name": "balanceOf",
      "outputs": [
        {
          "internalType": "uint256",
          "name": "",
          "type": "uint256"
        }
      ],
      "stateMutability": "view",
      "type": "function"
    },
    {
      "inputs": [
        {
          "internalType": "uint256",
          "name": "quantity",
          "type": "uint256"
        }
      ],
      "name": "devMint",
      "outputs": [],
      "stateMutability": "nonpayable",
      "type": "function"
    },
    {
      "inputs": [
        {
          "internalType": "uint256",
          "name": "tokenId",
          "type": "uint256"
        }
      ],
      "name": "getApproved",
      "outputs": [
        {
          "internalType": "address",
          "name": "",
          "type": "address"
        }
      ],
      "stateMutability": "view",
      "type": "function"
    },
    {
      "inputs": [
        {
          "internalType": "address",
          "name": "owner",
          "type": "address"
        },
        {
          "internalType": "address",
          "name": "operator",
          "type": "address"
        }
      ],
      "name": "isApprovedForAll",
      "outputs": [
        {
          "internalType": "bool",
          "name": "",
          "type": "bool"
        }
      ],
      "stateMutability": "view",
      "type": "function"
    },
    {
      "inputs": [],
      "name": "name",
      "outputs": [
        {
          "internalType": "string",
          "name": "",
          "type": "string"
        }
      ],
      "stateMutability": "view",
      "type": "function"
    },
    {
      "inputs": [],
      "name": "nextOwnerToExplicitlySet",
      "outputs": [
        {
          "internalType": "uint256",
          "name": "",
          "type": "uint256"
        }
      ],
      "stateMutability": "view",
      "type": "function"
    },
    {
      "inputs": [],
      "name": "owner",
      "outputs": [
        {
          "internalType": "address",
          "name": "",
          "type": "address"
        }
      ],
      "stateMutability": "view",
      "type": "function"
    },
    {
      "inputs": [
        {
          "internalType": "uint256",
          "name": "tokenId",
          "type": "uint256"
        }
      ],
      "name": "ownerOf",
      "outputs": [
        {
          "internalType": "address",
          "name": "",
          "type": "address"
        }
      ],
      "stateMutability": "view",
      "type": "function"
    },
    {
      "inputs": [],
      "name": "paused",
      "outputs": [
        {
          "internalType": "bool",
          "name": "",
          "type": "bool"
        }
      ],
      "stateMutability": "view",
      "type": "function"
    },
    {
      "inputs": [
        {
          "internalType": "bytes",
          "name": "_signature",
          "type": "bytes"
        },
        {
          "internalType": "uint256",
          "name": "quantity",
          "type": "uint256"
        }
      ],
      "name": "presale",
      "outputs": [],
      "stateMutability": "payable",
      "type": "function"
    },
    {
      "inputs": [
        {
          "internalType": "uint256",
          "name": "quantity",
          "type": "uint256"
        }
      ],
      "name": "pubMint",
      "outputs": [],
      "stateMutability": "payable",
      "type": "function"
    },
    {
      "inputs": [],
      "name": "renounceOwnership",
      "outputs": [],
      "stateMutability": "nonpayable",
      "type": "function"
    },
    {
      "inputs": [
        {
          "internalType": "string",
          "name": "_url",
          "type": "string"
        }
      ],
      "name": "reveal",
      "outputs": [],
      "stateMutability": "nonpayable",
      "type": "function"
    },
    {
      "inputs": [],
      "name": "revealed",
      "outputs": [
        {
          "internalType": "bool",
          "name": "",
          "type": "bool"
        }
      ],
      "stateMutability": "view",
      "type": "function"
    },
    {
      "inputs": [
        {
          "internalType": "address",
          "name": "from",
          "type": "address"
        },
        {
          "internalType": "address",
          "name": "to",
          "type": "address"
        },
        {
          "internalType": "uint256",
          "name": "tokenId",
          "type": "uint256"
        }
      ],
      "name": "safeTransferFrom",
      "outputs": [],
      "stateMutability": "nonpayable",
      "type": "function"
    },
    {
      "inputs": [
        {
          "internalType": "address",
          "name": "from",
          "type": "address"
        },
        {
          "internalType": "address",
          "name": "to",
          "type": "address"
        },
        {
          "internalType": "uint256",
          "name": "tokenId",
          "type": "uint256"
        },
        {
          "internalType": "bytes",
          "name": "_data",
          "type": "bytes"
        }
      ],
      "name": "safeTransferFrom",
      "outputs": [],
      "stateMutability": "nonpayable",
      "type": "function"
    },
    {
      "inputs": [],
      "name": "sale_state",
      "outputs": [
        {
          "internalType": "uint16",
          "name": "",
          "type": "uint16"
        }
      ],
      "stateMutability": "view",
      "type": "function"
    },
    {
      "inputs": [
        {
          "internalType": "address",
          "name": "operator",
          "type": "address"
        },
        {
          "internalType": "bool",
          "name": "approved",
          "type": "bool"
        }
      ],
      "name": "setApprovalForAll",
      "outputs": [],
      "stateMutability": "nonpayable",
      "type": "function"
    },
    {
      "inputs": [
        {
          "internalType": "string",
          "name": "_url",
          "type": "string"
        }
      ],
      "name": "setBaseURL",
      "outputs": [],
      "stateMutability": "nonpayable",
      "type": "function"
    },
    {
      "inputs": [
        {
          "internalType": "address",
          "name": "_primary",
          "type": "address"
        }
      ],
      "name": "setPrimaryAddress",
      "outputs": [],
      "stateMutability": "nonpayable",
      "type": "function"
    },
    {
      "inputs": [
        {
          "internalType": "address",
          "name": "_pubKey",
          "type": "address"
        }
      ],
      "name": "setPublicKey",
      "outputs": [],
      "stateMutability": "nonpayable",
      "type": "function"
    },
    {
      "inputs": [
        {
          "internalType": "uint256",
          "name": "_price",
          "type": "uint256"
        }
      ],
      "name": "setSalePrice",
      "outputs": [],
      "stateMutability": "nonpayable",
      "type": "function"
    },
    {
      "inputs": [
        {
          "internalType": "uint16",
          "name": "_sale_state",
          "type": "uint16"
        }
      ],
      "name": "setSaleState",
      "outputs": [],
      "stateMutability": "nonpayable",
      "type": "function"
    },
    {
      "inputs": [
        {
          "internalType": "bytes4",
          "name": "interfaceId",
          "type": "bytes4"
        }
      ],
      "name": "supportsInterface",
      "outputs": [
        {
          "internalType": "bool",
          "name": "",
          "type": "bool"
        }
      ],
      "stateMutability": "view",
      "type": "function"
    },
    {
      "inputs": [],
      "name": "symbol",
      "outputs": [
        {
          "internalType": "string",
          "name": "",
          "type": "string"
        }
      ],
      "stateMutability": "view",
      "type": "function"
    },
    {
      "inputs": [],
      "name": "togglePaused",
      "outputs": [],
      "stateMutability": "nonpayable",
      "type": "function"
    },
    {
      "inputs": [
        {
          "internalType": "uint256",
          "name": "index",
          "type": "uint256"
        }
      ],
      "name": "tokenByIndex",
      "outputs": [
        {
          "internalType": "uint256",
          "name": "",
          "type": "uint256"
        }
      ],
      "stateMutability": "view",
      "type": "function"
    },
    {
      "inputs": [
        {
          "internalType": "address",
          "name": "owner",
          "type": "address"
        },
        {
          "internalType": "uint256",
          "name": "index",
          "type": "uint256"
        }
      ],
      "name": "tokenOfOwnerByIndex",
      "outputs": [
        {
          "internalType": "uint256",
          "name": "",
          "type": "uint256"
        }
      ],
      "stateMutability": "view",
      "type": "function"
    },
    {
      "inputs": [
        {
          "internalType": "uint256",
          "name": "_tokenId",
          "type": "uint256"
        }
      ],
      "name": "tokenURI",
      "outputs": [
        {
          "internalType": "string",
          "name": "",
          "type": "string"
        }
      ],
      "stateMutability": "view",
      "type": "function"
    },
    {
      "inputs": [],
      "name": "totalSupply",
      "outputs": [
        {
          "internalType": "uint256",
          "name": "",
          "type": "uint256"
        }
      ],
      "stateMutability": "view",
      "type": "function"
    },
    {
      "inputs": [
        {
          "internalType": "address",
          "name": "from",
          "type": "address"
        },
        {
          "internalType": "address",
          "name": "to",
          "type": "address"
        },
        {
          "internalType": "uint256",
          "name": "tokenId",
          "type": "uint256"
        }
      ],
      "name": "transferFrom",
      "outputs": [],
      "stateMutability": "nonpayable",
      "type": "function"
    },
    {
      "inputs": [
        {
          "internalType": "address",
          "name": "newOwner",
          "type": "address"
        }
      ],
      "name": "transferOwnership",
      "outputs": [],
      "stateMutability": "nonpayable",
      "type": "function"
    },
    {
      "inputs": [],
      "name": "withdraw",
      "outputs": [],
      "stateMutability": "payable",
      "type": "function"
    }
  ],
  "bytecode": "0x6000808055600755610bb86009556005600a55661c6bf526340000600b55600f600c55610140604052604560c0818152906200367e60e03980516200004d91600e91602090910190620001ce565b5064173539b7b760d91b600f553480156200006757600080fd5b506040518060400160405280601d81526020017f446567656e20416765204561726c792041646f707465727320506173730000008152506040518060400160405280600381526020016204541560ec1b815250600a5460095460008111620000ec5760405162461bcd60e51b8152600401620000e390620002bb565b60405180910390fd5b600082116200010f5760405162461bcd60e51b8152600401620000e39062000274565b835162000124906001906020870190620001ce565b5082516200013a906002906020860190620001ce565b5060a091909152608052506200015b90506200015562000178565b6200017c565b60108054610100600160a81b031916336101000217905562000346565b3390565b600880546001600160a01b038381166001600160a01b0319831681179093556040519116919082907f8be0079c531659141344cd1fd0a4f28419497f9722a3daafe3b4186f6b6457e090600090a35050565b828054620001dc9062000309565b90600052602060002090601f0160209004810192826200020057600085556200024b565b82601f106200021b57805160ff19168380011785556200024b565b828001600101855582156200024b579182015b828111156200024b5782518255916020019190600101906200022e565b50620002599291506200025d565b5090565b5b808211156200025957600081556001016200025e565b60208082526027908201527f455243373231413a206d61782062617463682073697a65206d757374206265206040820152666e6f6e7a65726f60c81b606082015260800190565b6020808252602e908201527f455243373231413a20636f6c6c656374696f6e206d757374206861766520612060408201526d6e6f6e7a65726f20737570706c7960901b606082015260800190565b6002810460018216806200031e57607f821691505b602082108114156200034057634e487b7160e01b600052602260045260246000fd5b50919050565b60805160a0516133076200037760003960008181611894015281816118be0152611d310152600050506133076000f3fe6080604052600436106102515760003560e01c8063518302271161013957806395d89b41116100b6578063ce2a86f01161007a578063ce2a86f01461063e578063d51eeafd14610653578063d7224ba014610673578063e985e9c514610688578063f2fde38b146106a8578063f5e1713e146106c857610251565b806395d89b41146105b6578063a22cb465146105cb578063b88d4fde146105eb578063c1d9df8d1461060b578063c87b56dd1461061e57610251565b806377cfe82b116100fd57806377cfe82b1461054f5780637f205a74146105625780637f78636a146105775780638da5cb5b1461058c578063950bff9f146105a157610251565b806351830227146104d05780635c975abb146104e55780636352211e146104fa57806370a082311461051a578063715018a61461053a57610251565b8063283d26ca116101d25780633ccfd60b116101965780633ccfd60b1461043357806342842e0e1461043b57806346f136191461045b57806349f2553a146104705780634c261247146104905780634f6ccce7146104b057610251565b8063283d26ca146103b45780632f745c59146103c957806332cb6b0c146103e957806336566f06146103fe578063375a069a1461041357610251565b8063097eb75911610219578063097eb759146103125780631438ddee1461033257806318160ddd146103525780631919fed71461037457806323b872dd1461039457610251565b806301ffc9a714610256578063062fa1f81461028c57806306fdde03146102ae578063081812fc146102d0578063095ea7b3146102f0575b600080fd5b34801561026257600080fd5b5061027661027136600461251a565b6106ea565b6040516102839190612800565b60405180910390f35b34801561029857600080fd5b506102a161074d565b6040516102839190612796565b3480156102ba57600080fd5b506102c3610761565b6040516102839190612832565b3480156102dc57600080fd5b506102a16102eb36600461262d565b6107f3565b3480156102fc57600080fd5b5061031061030b3660046124f1565b61083f565b005b34801561031e57600080fd5b5061031061032d3660046123b0565b6108d8565b34801561033e57600080fd5b5061031061034d36600461260b565b610939565b34801561035e57600080fd5b50610367610990565b604051610283919061280b565b34801561038057600080fd5b5061031061038f36600461262d565b610996565b3480156103a057600080fd5b506103106103af366004612403565b6109da565b3480156103c057600080fd5b506102a16109e5565b3480156103d557600080fd5b506103676103e43660046124f1565b6109f4565b3480156103f557600080fd5b50610367610af0565b34801561040a57600080fd5b50610310610af6565b34801561041f57600080fd5b5061031061042e36600461262d565b610b54565b610310610c71565b34801561044757600080fd5b50610310610456366004612403565b610d26565b34801561046757600080fd5b50610367610d41565b34801561047c57600080fd5b5061031061048b3660046125c5565b610d47565b34801561049c57600080fd5b506103106104ab3660046125c5565b610d9d565b3480156104bc57600080fd5b506103676104cb36600461262d565b610e00565b3480156104dc57600080fd5b50610276610e2c565b3480156104f157600080fd5b50610276610e35565b34801561050657600080fd5b506102a161051536600461262d565b610e44565b34801561052657600080fd5b506103676105353660046123b0565b610e56565b34801561054657600080fd5b50610310610ea3565b61031061055d366004612552565b610eee565b34801561056e57600080fd5b5061036761100f565b34801561058357600080fd5b506102c3611015565b34801561059857600080fd5b506102a16110a3565b3480156105ad57600080fd5b506103676110b2565b3480156105c257600080fd5b506102c36110b8565b3480156105d757600080fd5b506103106105e63660046124b7565b6110c7565b3480156105f757600080fd5b5061031061060636600461243e565b611195565b61031061061936600461262d565b6111ce565b34801561062a57600080fd5b506102c361063936600461262d565b6112c8565b34801561064a57600080fd5b5061036761139c565b34801561065f57600080fd5b5061031061066e3660046123b0565b6113a2565b34801561067f57600080fd5b50610367611409565b34801561069457600080fd5b506102766106a33660046123d1565b61140f565b3480156106b457600080fd5b506103106106c33660046123b0565b61143d565b3480156106d457600080fd5b506106dd6114ab565b60405161028391906130fc565b60006001600160e01b031982166380ac58cd60e01b148061071b57506001600160e01b03198216635b5e139f60e01b145b8061073657506001600160e01b0319821663780e9d6360e01b145b806107455750610745826114b5565b90505b919050565b60105461010090046001600160a01b031681565b6060600180546107709061320f565b80601f016020809104026020016040519081016040528092919081815260200182805461079c9061320f565b80156107e95780601f106107be576101008083540402835291602001916107e9565b820191906000526020600020905b8154815290600101906020018083116107cc57829003601f168201915b5050505050905090565b60006107fe826114ce565b6108235760405162461bcd60e51b815260040161081a9061302c565b60405180910390fd5b506000908152600560205260409020546001600160a01b031690565b600061084a82610e44565b9050806001600160a01b0316836001600160a01b0316141561087e5760405162461bcd60e51b815260040161081a90612e4b565b806001600160a01b03166108906114d5565b6001600160a01b031614806108ac57506108ac816106a36114d5565b6108c85760405162461bcd60e51b815260040161081a90612c26565b6108d38383836114d9565b505050565b6108e06114d5565b6001600160a01b03166108f16110a3565b6001600160a01b0316146109175760405162461bcd60e51b815260040161081a90612d56565b601180546001600160a01b0319166001600160a01b0392909216919091179055565b6109416114d5565b6001600160a01b03166109526110a3565b6001600160a01b0316146109785760405162461bcd60e51b815260040161081a90612d56565b600d805461ffff191661ffff92909216919091179055565b60005490565b61099e6114d5565b6001600160a01b03166109af6110a3565b6001600160a01b0316146109d55760405162461bcd60e51b815260040161081a90612d56565b600b55565b6108d3838383611535565b6011546001600160a01b031681565b60006109ff83610e56565b8210610a1d5760405162461bcd60e51b815260040161081a9061287c565b6000610a27610990565b905060008060005b83811015610ad1576000818152600360209081526040918290208251808401909352546001600160a01b038116808452600160a01b90910467ffffffffffffffff169183019190915215610a8257805192505b876001600160a01b0316836001600160a01b03161415610abe5786841415610ab057509350610aea92505050565b83610aba8161324a565b9450505b5080610ac98161324a565b915050610a2f565b5060405162461bcd60e51b815260040161081a90612f8f565b92915050565b60095481565b610afe6114d5565b6001600160a01b0316610b0f6110a3565b6001600160a01b031614610b355760405162461bcd60e51b815260040161081a90612d56565b600d805462ff0000198116620100009182900460ff1615909102179055565b610b5c6114d5565b6001600160a01b0316610b6d6110a3565b6001600160a01b031614610b935760405162461bcd60e51b815260040161081a90612d56565b600d5462010000900460ff1615610ba957600080fd5b60105461010090046001600160a01b03163314610bd85760405162461bcd60e51b815260040161081a90612e8d565b600a54610be59082613265565b15610c025760405162461bcd60e51b815260040161081a90612b73565b600c5481610c0e610990565b610c189190613142565b1115610c365760405162461bcd60e51b815260040161081a90612985565b6000600a5482610c46919061315a565b905060005b818110156108d357610c5f33600a54611849565b80610c698161324a565b915050610c4b565b610c796114d5565b6001600160a01b0316610c8a6110a3565b6001600160a01b031614610cb05760405162461bcd60e51b815260040161081a90612d56565b60105460405160009161010090046001600160a01b0316904790610cd390612793565b60006040518083038185875af1925050503d8060008114610d10576040519150601f19603f3d011682016040523d82523d6000602084013e610d15565b606091505b5050905080610d2357600080fd5b50565b6108d383838360405180602001604052806000815250611195565b600f5481565b610d4f6114d5565b6001600160a01b0316610d606110a3565b6001600160a01b031614610d865760405162461bcd60e51b815260040161081a90612d56565b8051610d9990600e906020840190612277565b5050565b610da56114d5565b6001600160a01b0316610db66110a3565b6001600160a01b031614610ddc5760405162461bcd60e51b815260040161081a90612d56565b8051610def90600e906020840190612277565b50506010805460ff19166001179055565b6000610e0a610990565b8210610e285760405162461bcd60e51b815260040161081a90612a06565b5090565b60105460ff1681565b600d5462010000900460ff1681565b6000610e4f82611863565b5192915050565b60006001600160a01b038216610e7e5760405162461bcd60e51b815260040161081a90612c83565b506001600160a01b03166000908152600460205260409020546001600160801b031690565b610eab6114d5565b6001600160a01b0316610ebc6110a3565b6001600160a01b031614610ee25760405162461bcd60e51b815260040161081a90612d56565b610eec6000611976565b565b600d5462010000900460ff1615610f0457600080fd5b60095481610f10610990565b610f1a9190613142565b1115610f385760405162461bcd60e51b815260040161081a906129cf565b600d5461ffff16600114610f5e5760405162461bcd60e51b815260040161081a90612e14565b610f698383336119c8565b610f855760405162461bcd60e51b815260040161081a90612bb8565b80600b54610f93919061316e565b3414610fb15760405162461bcd60e51b815260040161081a90612bef565b323314610fd05760405162461bcd60e51b815260040161081a906130bb565b600a5481610fdd33611a55565b610fe79190613142565b11156110055760405162461bcd60e51b815260040161081a90612adf565b6108d33382611849565b600b5481565b600e80546110229061320f565b80601f016020809104026020016040519081016040528092919081815260200182805461104e9061320f565b801561109b5780601f106110705761010080835404028352916020019161109b565b820191906000526020600020905b81548152906001019060200180831161107e57829003601f168201915b505050505081565b6008546001600160a01b031690565b600a5481565b6060600280546107709061320f565b6110cf6114d5565b6001600160a01b0316826001600160a01b031614156111005760405162461bcd60e51b815260040161081a90612d8b565b806006600061110d6114d5565b6001600160a01b03908116825260208083019390935260409182016000908120918716808252919093529120805460ff1916921515929092179091556111516114d5565b6001600160a01b03167f17307eab39ab6107e8899845ad3d59bd9653f200f220920489ca2b5937696c31836040516111899190612800565b60405180910390a35050565b6111a0848484611535565b6111ac84848484611aa9565b6111c85760405162461bcd60e51b815260040161081a90612ec4565b50505050565b600d5462010000900460ff16156111e457600080fd5b600954816111f0610990565b6111fa9190613142565b11156112185760405162461bcd60e51b815260040161081a906129cf565b600d5461ffff1660021461123e5760405162461bcd60e51b815260040161081a90612e14565b80600b5461124c919061316e565b341461126a5760405162461bcd60e51b815260040161081a90612bef565b3233146112895760405162461bcd60e51b815260040161081a906130bb565b600a548161129633611a55565b6112a09190613142565b11156112be5760405162461bcd60e51b815260040161081a90612adf565b610d233382611849565b60105460609060ff161561130a57600e6112e183611bc5565b600f546040516020016112f69392919061268d565b604051602081830303815290604052610745565b600e80546113179061320f565b80601f01602080910402602001604051908101604052809291908181526020018280546113439061320f565b80156113905780601f1061136557610100808354040283529160200191611390565b820191906000526020600020905b81548152906001019060200180831161137357829003601f168201915b50505050509050919050565b600c5481565b6113aa6114d5565b6001600160a01b03166113bb6110a3565b6001600160a01b0316146113e15760405162461bcd60e51b815260040161081a90612d56565b601080546001600160a01b0390921661010002610100600160a81b0319909216919091179055565b60075481565b6001600160a01b03918216600090815260066020908152604080832093909416825291909152205460ff1690565b6114456114d5565b6001600160a01b03166114566110a3565b6001600160a01b03161461147c5760405162461bcd60e51b815260040161081a90612d56565b6001600160a01b0381166114a25760405162461bcd60e51b815260040161081a906128f5565b610d2381611976565b600d5461ffff1681565b6001600160e01b031981166301ffc9a760e01b14919050565b6000541190565b3390565b60008281526005602052604080822080546001600160a01b0319166001600160a01b0387811691821790925591518593918516917f8c5be1e5ebec7d5bd14f71427d1e84f3dd0314c0f7b2291e5b200ac8c7c3b92591a4505050565b600061154082611863565b9050600081600001516001600160a01b031661155a6114d5565b6001600160a01b0316148061158f57506115726114d5565b6001600160a01b0316611584846107f3565b6001600160a01b0316145b806115a3575081516115a3906106a36114d5565b9050806115c25760405162461bcd60e51b815260040161081a90612dc2565b846001600160a01b031682600001516001600160a01b0316146115f75760405162461bcd60e51b815260040161081a90612d10565b6001600160a01b03841661161d5760405162461bcd60e51b815260040161081a90612a49565b61162a85858560016111c8565b61163a60008484600001516114d9565b6001600160a01b038516600090815260046020526040812080546001929061166c9084906001600160801b031661318d565b82546101009290920a6001600160801b038181021990931691831602179091556001600160a01b038616600090815260046020526040812080546001945090926116b891859116613117565b82546001600160801b039182166101009390930a9283029190920219909116179055506040805180820182526001600160a01b03808716825267ffffffffffffffff428116602080850191825260008981526003909152948520935184549151909216600160a01b0267ffffffffffffffff60a01b19929093166001600160a01b0319909116171617905561174e846001613142565b6000818152600360205260409020549091506001600160a01b03166117f357611776816114ce565b156117f35760408051808201825284516001600160a01b03908116825260208087015167ffffffffffffffff90811682850190815260008781526003909352949091209251835494516001600160a01b031990951692169190911767ffffffffffffffff60a01b1916600160a01b93909116929092029190911790555b83856001600160a01b0316876001600160a01b03167fddf252ad1be2c89b69c2b068fc378daa952ba7f163c4a11628f55a4df523b3ef60405160405180910390a461184186868660016111c8565b505050505050565b610d99828260405180602001604052806000815250611ce0565b61186b6122f7565b611874826114ce565b6118905760405162461bcd60e51b815260040161081a9061293b565b60007f000000000000000000000000000000000000000000000000000000000000000083106118f1576118e37f0000000000000000000000000000000000000000000000000000000000000000846131b5565b6118ee906001613142565b90505b825b81811061195d576000818152600360209081526040918290208251808401909352546001600160a01b038116808452600160a01b90910467ffffffffffffffff16918301919091521561194a579250610748915050565b5080611955816131f8565b9150506118f3565b5060405162461bcd60e51b815260040161081a90612fdd565b600880546001600160a01b038381166001600160a01b0319831681179093556040519116919082907f8be0079c531659141344cd1fd0a4f28419497f9722a3daafe3b4186f6b6457e090600090a35050565b601154604080516020601f86018190048102820181019092528481526000926001600160a01b031691611a439190879087908190840183828082843760009201919091525050600954604051611a3d9350611a2992508891906020016127e7565b604051602081830303815290604052611f53565b90611f8e565b6001600160a01b031614949350505050565b60006001600160a01b038216611a7d5760405162461bcd60e51b815260040161081a90612a8e565b506001600160a01b0316600090815260046020526040902054600160801b90046001600160801b031690565b6000611abd846001600160a01b0316611fb2565b15611bb957836001600160a01b031663150b7a02611ad96114d5565b8786866040518563ffffffff1660e01b8152600401611afb94939291906127aa565b602060405180830381600087803b158015611b1557600080fd5b505af1925050508015611b45575060408051601f3d908101601f19168201909252611b4291810190612536565b60015b611b9f573d808015611b73576040519150601f19603f3d011682016040523d82523d6000602084013e611b78565b606091505b508051611b975760405162461bcd60e51b815260040161081a90612ec4565b805181602001fd5b6001600160e01b031916630a85bd0160e11b149050611bbd565b5060015b949350505050565b606081611bea57506040805180820190915260018152600360fc1b6020820152610748565b8160005b8115611c145780611bfe8161324a565b9150611c0d9050600a8361315a565b9150611bee565b60008167ffffffffffffffff811115611c3d57634e487b7160e01b600052604160045260246000fd5b6040519080825280601f01601f191660200182016040528015611c67576020820181803683370190505b5090505b8415611bbd57611c7c6001836131b5565b9150611c89600a86613265565b611c94906030613142565b60f81b818381518110611cb757634e487b7160e01b600052603260045260246000fd5b60200101906001600160f81b031916908160001a905350611cd9600a8661315a565b9450611c6b565b6000546001600160a01b038416611d095760405162461bcd60e51b815260040161081a90612f4e565b611d12816114ce565b15611d2f5760405162461bcd60e51b815260040161081a90612f17565b7f0000000000000000000000000000000000000000000000000000000000000000831115611d6f5760405162461bcd60e51b815260040161081a90613079565b611d7c60008583866111c8565b6001600160a01b0384166000908152600460209081526040918290208251808401845290546001600160801b038082168352600160801b9091041691810191909152815180830190925280519091908190611dd8908790613117565b6001600160801b03168152602001858360200151611df69190613117565b6001600160801b039081169091526001600160a01b03808816600081815260046020908152604080832087518154988401518816600160801b029088166fffffffffffffffffffffffffffffffff1990991698909817909616969096179094558451808601865291825267ffffffffffffffff4281168386019081528883526003909552948120915182549451909516600160a01b0267ffffffffffffffff60a01b19959093166001600160a01b031990941693909317939093161790915582905b85811015611f415760405182906001600160a01b038916906000907fddf252ad1be2c89b69c2b068fc378daa952ba7f163c4a11628f55a4df523b3ef908290a4611f056000888488611aa9565b611f215760405162461bcd60e51b815260040161081a90612ec4565b81611f2b8161324a565b9250508080611f399061324a565b915050611eb8565b506000818155611841908785886111c8565b6000611f5f8251611bc5565b82604051602001611f71929190612738565b604051602081830303815290604052805190602001209050919050565b6000806000611f9d8585611fc1565b91509150611faa81612031565b509392505050565b6001600160a01b03163b151590565b600080825160411415611ff85760208301516040840151606085015160001a611fec8782858561215e565b9450945050505061202a565b825160401415612022576020830151604084015161201786838361223e565b93509350505061202a565b506000905060025b9250929050565b600081600481111561205357634e487b7160e01b600052602160045260246000fd5b141561205e57610d23565b600181600481111561208057634e487b7160e01b600052602160045260246000fd5b141561209e5760405162461bcd60e51b815260040161081a90612845565b60028160048111156120c057634e487b7160e01b600052602160045260246000fd5b14156120de5760405162461bcd60e51b815260040161081a906128be565b600381600481111561210057634e487b7160e01b600052602160045260246000fd5b141561211e5760405162461bcd60e51b815260040161081a90612b31565b600481600481111561214057634e487b7160e01b600052602160045260246000fd5b1415610d235760405162461bcd60e51b815260040161081a90612cce565b6000807f7fffffffffffffffffffffffffffffff5d576e7357a4501ddfe92f46681b20a08311156121955750600090506003612235565b8460ff16601b141580156121ad57508460ff16601c14155b156121be5750600090506004612235565b6000600187878787604051600081526020016040526040516121e39493929190612814565b6020604051602081039080840390855afa158015612205573d6000803e3d6000fd5b5050604051601f1901519150506001600160a01b03811661222e57600060019250925050612235565b9150600090505b94509492505050565b6000806001600160ff1b0383168161225b60ff86901c601b613142565b90506122698782888561215e565b935093505050935093915050565b8280546122839061320f565b90600052602060002090601f0160209004810192826122a557600085556122eb565b82601f106122be57805160ff19168380011785556122eb565b828001600101855582156122eb579182015b828111156122eb5782518255916020019190600101906122d0565b50610e2892915061230e565b604080518082019091526000808252602082015290565b5b80821115610e28576000815560010161230f565b600067ffffffffffffffff8084111561233e5761233e6132a5565b604051601f8501601f19908116603f01168101908282118183101715612366576123666132a5565b8160405280935085815286868601111561237f57600080fd5b858560208301376000602087830101525050509392505050565b80356001600160a01b038116811461074857600080fd5b6000602082840312156123c1578081fd5b6123ca82612399565b9392505050565b600080604083850312156123e3578081fd5b6123ec83612399565b91506123fa60208401612399565b90509250929050565b600080600060608486031215612417578081fd5b61242084612399565b925061242e60208501612399565b9150604084013590509250925092565b60008060008060808587031215612453578081fd5b61245c85612399565b935061246a60208601612399565b925060408501359150606085013567ffffffffffffffff81111561248c578182fd5b8501601f8101871361249c578182fd5b6124ab87823560208401612323565b91505092959194509250565b600080604083850312156124c9578182fd5b6124d283612399565b9150602083013580151581146124e6578182fd5b809150509250929050565b60008060408385031215612503578182fd5b61250c83612399565b946020939093013593505050565b60006020828403121561252b578081fd5b81356123ca816132bb565b600060208284031215612547578081fd5b81516123ca816132bb565b600080600060408486031215612566578283fd5b833567ffffffffffffffff8082111561257d578485fd5b818601915086601f830112612590578485fd5b81358181111561259e578586fd5b8760208285010111156125af578586fd5b6020928301989097509590910135949350505050565b6000602082840312156125d6578081fd5b813567ffffffffffffffff8111156125ec578182fd5b8201601f810184136125fc578182fd5b611bbd84823560208401612323565b60006020828403121561261c578081fd5b813561ffff811681146123ca578182fd5b60006020828403121561263e578081fd5b5035919050565b6000815180845261265d8160208601602086016131cc565b601f01601f19169290920160200192915050565b600081516126838185602086016131cc565b9290920192915050565b83546000908190600281046001808316806126a957607f831692505b60208084108214156126c957634e487b7160e01b87526022600452602487fd5b8180156126dd57600181146126ee5761271a565b60ff1986168952848901965061271a565b6126f78c61310b565b885b868110156127125781548b8201529085019083016126f9565b505084890196505b50612725868b612671565b9889529097019998505050505050505050565b60007f19457468657265756d205369676e6564204d6573736167653a0a0000000000008252835161277081601a8501602088016131cc565b83519083019061278781601a8401602088016131cc565b01601a01949350505050565b90565b6001600160a01b0391909116815260200190565b6001600160a01b03858116825284166020820152604081018390526080606082018190526000906127dd90830184612645565b9695505050505050565b6001600160a01b03929092168252602082015260400190565b901515815260200190565b90815260200190565b93845260ff9290921660208401526040830152606082015260800190565b6000602082526123ca6020830184612645565b60208082526018908201527f45434453413a20696e76616c6964207369676e61747572650000000000000000604082015260600190565b60208082526022908201527f455243373231413a206f776e657220696e646578206f7574206f6620626f756e604082015261647360f01b606082015260800190565b6020808252601f908201527f45434453413a20696e76616c6964207369676e6174757265206c656e67746800604082015260600190565b60208082526026908201527f4f776e61626c653a206e6577206f776e657220697320746865207a65726f206160408201526564647265737360d01b606082015260800190565b6020808252602a908201527f455243373231413a206f776e657220717565727920666f72206e6f6e657869736040820152693a32b73a103a37b5b2b760b11b606082015260800190565b6020808252602a908201527f5175616e746974792065786365656473206e756d626572206f6620726573657260408201526976656420746f6b656e7360b01b606082015260800190565b6020808252601b908201527f416c6c207061737365732068617665206265656e206d696e7465640000000000604082015260600190565b60208082526023908201527f455243373231413a20676c6f62616c20696e646578206f7574206f6620626f756040820152626e647360e81b606082015260800190565b60208082526025908201527f455243373231413a207472616e7366657220746f20746865207a65726f206164604082015264647265737360d81b606082015260800190565b60208082526031908201527f455243373231413a206e756d626572206d696e74656420717565727920666f7260408201527020746865207a65726f206164647265737360781b606082015260800190565b60208082526032908201527f41646472657373206973206e6f7420616c6c6f77656420746f206d696e74206d6040820152710dee4ca40e8d0c2dc409a82b0be8482a886960731b606082015260800190565b60208082526022908201527f45434453413a20696e76616c6964207369676e6174757265202773272076616c604082015261756560f01b606082015260800190565b60208082526025908201527f43616e206f6e6c79206d696e742061206d756c7469706c65206f66204d41585f60408201526408482a886960db1b606082015260800190565b60208082526017908201527f55736572206973206e6f742077686974656c6973746564000000000000000000604082015260600190565b60208082526019908201527f496e636f727265637420616d6f756e74206f6620457468657200000000000000604082015260600190565b60208082526039908201527f455243373231413a20617070726f76652063616c6c6572206973206e6f74206f60408201527f776e6572206e6f7220617070726f76656420666f7220616c6c00000000000000606082015260800190565b6020808252602b908201527f455243373231413a2062616c616e636520717565727920666f7220746865207a60408201526a65726f206164647265737360a81b606082015260800190565b60208082526022908201527f45434453413a20696e76616c6964207369676e6174757265202776272076616c604082015261756560f01b606082015260800190565b60208082526026908201527f455243373231413a207472616e736665722066726f6d20696e636f72726563746040820152651037bbb732b960d11b606082015260800190565b6020808252818101527f4f776e61626c653a2063616c6c6572206973206e6f7420746865206f776e6572604082015260600190565b6020808252601a908201527f455243373231413a20617070726f766520746f2063616c6c6572000000000000604082015260600190565b60208082526032908201527f455243373231413a207472616e736665722063616c6c6572206973206e6f74206040820152711bdddb995c881b9bdc88185c1c1c9bdd995960721b606082015260800190565b6020808252601a908201527f53616c652069732063757272656e746c7920696e616374697665000000000000604082015260600190565b60208082526022908201527f455243373231413a20617070726f76616c20746f2063757272656e74206f776e60408201526132b960f11b606082015260800190565b6020808252601f908201527f41646472657373206973206e6f7420616c6c6f77656420746f206d696e742e00604082015260600190565b60208082526033908201527f455243373231413a207472616e7366657220746f206e6f6e204552433732315260408201527232b1b2b4bb32b91034b6b83632b6b2b73a32b960691b606082015260800190565b6020808252601d908201527f455243373231413a20746f6b656e20616c7265616479206d696e746564000000604082015260600190565b60208082526021908201527f455243373231413a206d696e7420746f20746865207a65726f206164647265736040820152607360f81b606082015260800190565b6020808252602e908201527f455243373231413a20756e61626c6520746f2067657420746f6b656e206f662060408201526d0deeedccae440c4f240d2dcc8caf60931b606082015260800190565b6020808252602f908201527f455243373231413a20756e61626c6520746f2064657465726d696e652074686560408201526e1037bbb732b91037b3103a37b5b2b760891b606082015260800190565b6020808252602d908201527f455243373231413a20617070726f76656420717565727920666f72206e6f6e6560408201526c3c34b9ba32b73a103a37b5b2b760991b606082015260800190565b60208082526022908201527f455243373231413a207175616e7469747920746f206d696e7420746f6f2068696040820152610ced60f31b606082015260800190565b60208082526021908201527f436f6e74726163747320617265206e6f7420616c6c6f77656420746f206d696e6040820152601d60fa1b606082015260800190565b61ffff91909116815260200190565b60009081526020902090565b60006001600160801b0380831681851680830382111561313957613139613279565b01949350505050565b6000821982111561315557613155613279565b500190565b6000826131695761316961328f565b500490565b600081600019048311821515161561318857613188613279565b500290565b60006001600160801b03838116908316818110156131ad576131ad613279565b039392505050565b6000828210156131c7576131c7613279565b500390565b60005b838110156131e75781810151838201526020016131cf565b838111156111c85750506000910152565b60008161320757613207613279565b506000190190565b60028104600182168061322357607f821691505b6020821081141561324457634e487b7160e01b600052602260045260246000fd5b50919050565b600060001982141561325e5761325e613279565b5060010190565b6000826132745761327461328f565b500690565b634e487b7160e01b600052601160045260246000fd5b634e487b7160e01b600052601260045260246000fd5b634e487b7160e01b600052604160045260246000fd5b6001600160e01b031981168114610d2357600080fdfea26469706673582212201da3140ec6db4a43449d69850647f19fd1c58fa66b9932181b1216634be38da764736f6c63430008010033697066733a2f2f516d524e6e7371615032714153595756796255476e51686e5854337172775a5536526f70737653545863366b687a2f756e72657665616c65642e6a736f6e",
  "linkReferences": {},
  "deployedLinkReferences": {}
}