{
  "_format": "hh-sol-artifact-1",
  "contractName": "Schil",
  "sourceName": "contracts/Schil.sol",
  "abi": [
    {
      "inputs": [
        {
          "internalType": "address",
          "name": "_sponsor",
          "type": "address"
        }
      ],
      "stateMutability": "nonpayable",
      "type": "constructor"
    },
    {
      "anonymous": false,
      "inputs": [
        {
          "indexed": true,
          "internalType": "address",
          "name": "owner",
          "type": "address"
        },
        {
          "indexed": true,
          "internalType": "address",
          "name": "spender",
          "type": "address"
        },
        {
          "indexed": false,
          "internalType": "uint256",
          "name": "value",
          "type": "uint256"
        }
      ],
      "name": "Approval",
      "type": "event"
    },
    {
      "anonymous": false,
      "inputs": [
        {
          "indexed": true,
          "internalType": "address",
          "name": "previousOwner",
          "type": "address"
        },
        {
          "indexed": true,
          "internalType": "address",
          "name": "newOwner",
          "type": "address"
        }
      ],
      "name": "OwnershipTransferred",
      "type": "event"
    },
    {
      "anonymous": false,
      "inputs": [
        {
          "indexed": true,
          "internalType": "address",
          "name": "from",
          "type": "address"
        },
        {
          "indexed": true,
          "internalType": "address",
          "name": "to",
          "type": "address"
        },
        {
          "indexed": false,
          "internalType": "uint256",
          "name": "value",
          "type": "uint256"
        }
      ],
      "name": "Transfer",
      "type": "event"
    },
    {
      "inputs": [
        {
          "internalType": "address",
          "name": "owner",
          "type": "address"
        },
        {
          "internalType": "address",
          "name": "spender",
          "type": "address"
        }
      ],
      "name": "allowance",
      "outputs": [
        {
          "internalType": "uint256",
          "name": "",
          "type": "uint256"
        }
      ],
      "stateMutability": "view",
      "type": "function"
    },
    {
      "inputs": [
        {
          "internalType": "address",
          "name": "spender",
          "type": "address"
        },
        {
          "internalType": "uint256",
          "name": "amount",
          "type": "uint256"
        }
      ],
      "name": "approve",
      "outputs": [
        {
          "internalType": "bool",
          "name": "",
          "type": "bool"
        }
      ],
      "stateMutability": "nonpayable",
      "type": "function"
    },
    {
      "inputs": [
        {
          "internalType": "address",
          "name": "account",
          "type": "address"
        }
      ],
      "name": "balanceOf",
      "outputs": [
        {
          "internalType": "uint256",
          "name": "",
          "type": "uint256"
        }
      ],
      "stateMutability": "view",
      "type": "function"
    },
    {
      "inputs": [
        {
          "internalType": "uint256",
          "name": "amount",
          "type": "uint256"
        }
      ],
      "name": "burn",
      "outputs": [],
      "stateMutability": "nonpayable",
      "type": "function"
    },
    {
      "inputs": [
        {
          "internalType": "address",
          "name": "account",
          "type": "address"
        },
        {
          "internalType": "uint256",
          "name": "amount",
          "type": "uint256"
        }
      ],
      "name": "burnFrom",
      "outputs": [],
      "stateMutability": "nonpayable",
      "type": "function"
    },
    {
      "inputs": [],
      "name": "decimals",
      "outputs": [
        {
          "internalType": "uint8",
          "name": "",
          "type": "uint8"
        }
      ],
      "stateMutability": "view",
      "type": "function"
    },
    {
      "inputs": [
        {
          "internalType": "address",
          "name": "spender",
          "type": "address"
        },
        {
          "internalType": "uint256",
          "name": "subtractedValue",
          "type": "uint256"
        }
      ],
      "name": "decreaseAllowance",
      "outputs": [
        {
          "internalType": "bool",
          "name": "",
          "type": "bool"
        }
      ],
      "stateMutability": "nonpayable",
      "type": "function"
    },
    {
      "inputs": [
        {
          "internalType": "address",
          "name": "spender",
          "type": "address"
        },
        {
          "internalType": "uint256",
          "name": "addedValue",
          "type": "uint256"
        }
      ],
      "name": "increaseAllowance",
      "outputs": [
        {
          "internalType": "bool",
          "name": "",
          "type": "bool"
        }
      ],
      "stateMutability": "nonpayable",
      "type": "function"
    },
    {
      "inputs": [
        {
          "internalType": "uint256",
          "name": "_amount",
          "type": "uint256"
        }
      ],
      "name": "mintTokens",
      "outputs": [],
      "stateMutability": "payable",
      "type": "function"
    },
    {
      "inputs": [],
      "name": "name",
      "outputs": [
        {
          "internalType": "string",
          "name": "",
          "type": "string"
        }
      ],
      "stateMutability": "view",
      "type": "function"
    },
    {
      "inputs": [],
      "name": "owner",
      "outputs": [
        {
          "internalType": "address",
          "name": "",
          "type": "address"
        }
      ],
      "stateMutability": "view",
      "type": "function"
    },
    {
      "inputs": [],
      "name": "renounceOwnership",
      "outputs": [],
      "stateMutability": "nonpayable",
      "type": "function"
    },
    {
      "inputs": [
        {
          "internalType": "address",
          "name": "_account",
          "type": "address"
        }
      ],
      "name": "revokeMintPrivilege",
      "outputs": [],
      "stateMutability": "nonpayable",
      "type": "function"
    },
    {
      "inputs": [
        {
          "internalType": "address",
          "name": "_minter",
          "type": "address"
        }
      ],
      "name": "setMintPrivilege",
      "outputs": [],
      "stateMutability": "nonpayable",
      "type": "function"
    },
    {
      "inputs": [],
      "name": "symbol",
      "outputs": [
        {
          "internalType": "string",
          "name": "",
          "type": "string"
        }
      ],
      "stateMutability": "view",
      "type": "function"
    },
    {
      "inputs": [],
      "name": "totalSupply",
      "outputs": [
        {
          "internalType": "uint256",
          "name": "",
          "type": "uint256"
        }
      ],
      "stateMutability": "view",
      "type": "function"
    },
    {
      "inputs": [
        {
          "internalType": "address",
          "name": "to",
          "type": "address"
        },
        {
          "internalType": "uint256",
          "name": "amount",
          "type": "uint256"
        }
      ],
      "name": "transfer",
      "outputs": [
        {
          "internalType": "bool",
          "name": "",
          "type": "bool"
        }
      ],
      "stateMutability": "nonpayable",
      "type": "function"
    },
    {
      "inputs": [
        {
          "internalType": "address",
          "name": "from",
          "type": "address"
        },
        {
          "internalType": "address",
          "name": "to",
          "type": "address"
        },
        {
          "internalType": "uint256",
          "name": "amount",
          "type": "uint256"
        }
      ],
      "name": "transferFrom",
      "outputs": [
        {
          "internalType": "bool",
          "name": "",
          "type": "bool"
        }
      ],
      "stateMutability": "nonpayable",
      "type": "function"
    },
    {
      "inputs": [
        {
          "internalType": "address",
          "name": "newOwner",
          "type": "address"
        }
      ],
      "name": "transferOwnership",
      "outputs": [],
      "stateMutability": "nonpayable",
      "type": "function"
    }
  ],
  "bytecode": "0x60806040523480156200001157600080fd5b5060405162001530380380620015308339810160408190526200003491620002bd565b604080518082018252600c81526b1229a1a424a6102a37b5b2b760a11b60208083019182528351808501909452600584526414d0d2125360da1b908401528151919291620000859160039162000217565b5080516200009b90600490602084019062000217565b505050620000b8620000b2620000da60201b60201c565b620000de565b6c0c9f2c9cd04674edea40000000620000d2828262000130565b50506200038f565b3390565b600580546001600160a01b038381166001600160a01b0319831681179093556040519116919082907f8be0079c531659141344cd1fd0a4f28419497f9722a3daafe3b4186f6b6457e090600090a35050565b6001600160a01b038216620001625760405162461bcd60e51b81526004016200015990620002ed565b60405180910390fd5b620001706000838362000212565b80600260008282546200018491906200032d565b90915550506001600160a01b03821660009081526020819052604081208054839290620001b39084906200032d565b90915550506040516001600160a01b038316906000907fddf252ad1be2c89b69c2b068fc378daa952ba7f163c4a11628f55a4df523b3ef90620001f890859062000324565b60405180910390a36200020e6000838362000212565b5050565b505050565b828054620002259062000352565b90600052602060002090601f01602090048101928262000249576000855562000294565b82601f106200026457805160ff191683800117855562000294565b8280016001018555821562000294579182015b828111156200029457825182559160200191906001019062000277565b50620002a2929150620002a6565b5090565b5b80821115620002a25760008155600101620002a7565b600060208284031215620002cf578081fd5b81516001600160a01b0381168114620002e6578182fd5b9392505050565b6020808252601f908201527f45524332303a206d696e7420746f20746865207a65726f206164647265737300604082015260600190565b90815260200190565b600082198211156200034d57634e487b7160e01b81526011600452602481fd5b500190565b6002810460018216806200036757607f821691505b602082108114156200038957634e487b7160e01b600052602260045260246000fd5b50919050565b611191806200039f6000396000f3fe6080604052600436106101145760003560e01c8063715018a6116100a057806397304ced1161006457806397304ced146102e3578063a457c2d7146102f6578063a9059cbb14610316578063dd62ed3e14610336578063f2fde38b1461035657610114565b8063715018a61461025757806379cc67901461026c5780638da5cb5b1461028c57806395d89b41146102ae57806396830fe7146102c357610114565b8063313ce567116100e7578063313ce567146101b357806339509351146101d557806342966c68146101f5578063522b103a1461021757806370a082311461023757610114565b806306fdde0314610119578063095ea7b31461014457806318160ddd1461017157806323b872dd14610193575b600080fd5b34801561012557600080fd5b5061012e610376565b60405161013b9190610cf1565b60405180910390f35b34801561015057600080fd5b5061016461015f366004610c91565b610408565b60405161013b9190610ce6565b34801561017d57600080fd5b5061018661042a565b60405161013b91906110c4565b34801561019f57600080fd5b506101646101ae366004610c56565b610430565b3480156101bf57600080fd5b506101c861045e565b60405161013b91906110cd565b3480156101e157600080fd5b506101646101f0366004610c91565b610463565b34801561020157600080fd5b50610215610210366004610cba565b61048f565b005b34801561022357600080fd5b50610215610232366004610c03565b6104a3565b34801561024357600080fd5b50610186610252366004610c03565b610548565b34801561026357600080fd5b50610215610567565b34801561027857600080fd5b50610215610287366004610c91565b6105b2565b34801561029857600080fd5b506102a16105d2565b60405161013b9190610cd2565b3480156102ba57600080fd5b5061012e6105e1565b3480156102cf57600080fd5b506102156102de366004610c03565b6105f0565b6102156102f1366004610cba565b610688565b34801561030257600080fd5b50610164610311366004610c91565b6106c1565b34801561032257600080fd5b50610164610331366004610c91565b610709565b34801561034257600080fd5b50610186610351366004610c24565b610721565b34801561036257600080fd5b50610215610371366004610c03565b61074c565b6060600380546103859061110a565b80601f01602080910402602001604051908101604052809291908181526020018280546103b19061110a565b80156103fe5780601f106103d3576101008083540402835291602001916103fe565b820191906000526020600020905b8154815290600101906020018083116103e157829003601f168201915b5050505050905090565b6000806104136107ba565b90506104208185856107be565b5060019392505050565b60025490565b60008061043b6107ba565b9050610448858285610872565b6104538585856108bc565b506001949350505050565b601290565b60008061046e6107ba565b90506104208185856104808589610721565b61048a91906110db565b6107be565b6104a061049a6107ba565b826109e0565b50565b6104ab6107ba565b6001600160a01b03166104bc6105d2565b6001600160a01b0316146104eb5760405162461bcd60e51b81526004016104e290610f05565b60405180910390fd5b6001600160a01b03811660009081526006602052604090205460ff16156105245760405162461bcd60e51b81526004016104e290610f7b565b6001600160a01b03166000908152600660205260409020805460ff19166001179055565b6001600160a01b0381166000908152602081905260409020545b919050565b61056f6107ba565b6001600160a01b03166105806105d2565b6001600160a01b0316146105a65760405162461bcd60e51b81526004016104e290610f05565b6105b06000610ad2565b565b6105c4826105be6107ba565b83610872565b6105ce82826109e0565b5050565b6005546001600160a01b031690565b6060600480546103859061110a565b6105f86107ba565b6001600160a01b03166106096105d2565b6001600160a01b03161461062f5760405162461bcd60e51b81526004016104e290610f05565b6001600160a01b03811660009081526006602052604090205460ff166106675760405162461bcd60e51b81526004016104e290610ece565b6001600160a01b03166000908152600660205260409020805460ff19169055565b3360009081526006602052604090205460ff166106b75760405162461bcd60e51b81526004016104e290610ece565b6104a03382610b24565b6000806106cc6107ba565b905060006106da8286610721565b9050838110156106fc5760405162461bcd60e51b81526004016104e290611048565b61045382868684036107be565b6000806107146107ba565b90506104208185856108bc565b6001600160a01b03918216600090815260016020908152604080832093909416825291909152205490565b6107546107ba565b6001600160a01b03166107656105d2565b6001600160a01b03161461078b5760405162461bcd60e51b81526004016104e290610f05565b6001600160a01b0381166107b15760405162461bcd60e51b81526004016104e290610dc9565b6104a081610ad2565b3390565b6001600160a01b0383166107e45760405162461bcd60e51b81526004016104e290611004565b6001600160a01b03821661080a5760405162461bcd60e51b81526004016104e290610e0f565b6001600160a01b0380841660008181526001602090815260408083209487168084529490915290819020849055517f8c5be1e5ebec7d5bd14f71427d1e84f3dd0314c0f7b2291e5b200ac8c7c3b925906108659085906110c4565b60405180910390a3505050565b600061087e8484610721565b905060001981146108b657818110156108a95760405162461bcd60e51b81526004016104e290610e51565b6108b684848484036107be565b50505050565b6001600160a01b0383166108e25760405162461bcd60e51b81526004016104e290610fbf565b6001600160a01b0382166109085760405162461bcd60e51b81526004016104e290610d44565b610913838383610acd565b6001600160a01b0383166000908152602081905260409020548181101561094c5760405162461bcd60e51b81526004016104e290610e88565b6001600160a01b038085166000908152602081905260408082208585039055918516815290812080548492906109839084906110db565b92505081905550826001600160a01b0316846001600160a01b03167fddf252ad1be2c89b69c2b068fc378daa952ba7f163c4a11628f55a4df523b3ef846040516109cd91906110c4565b60405180910390a36108b6848484610acd565b6001600160a01b038216610a065760405162461bcd60e51b81526004016104e290610f3a565b610a1282600083610acd565b6001600160a01b03821660009081526020819052604090205481811015610a4b5760405162461bcd60e51b81526004016104e290610d87565b6001600160a01b0383166000908152602081905260408120838303905560028054849290610a7a9084906110f3565b90915550506040516000906001600160a01b038516907fddf252ad1be2c89b69c2b068fc378daa952ba7f163c4a11628f55a4df523b3ef90610abd9086906110c4565b60405180910390a3610acd836000845b505050565b600580546001600160a01b038381166001600160a01b0319831681179093556040519116919082907f8be0079c531659141344cd1fd0a4f28419497f9722a3daafe3b4186f6b6457e090600090a35050565b6001600160a01b038216610b4a5760405162461bcd60e51b81526004016104e29061108d565b610b5660008383610acd565b8060026000828254610b6891906110db565b90915550506001600160a01b03821660009081526020819052604081208054839290610b959084906110db565b90915550506040516001600160a01b038316906000907fddf252ad1be2c89b69c2b068fc378daa952ba7f163c4a11628f55a4df523b3ef90610bd89085906110c4565b60405180910390a36105ce60008383610acd565b80356001600160a01b038116811461056257600080fd5b600060208284031215610c14578081fd5b610c1d82610bec565b9392505050565b60008060408385031215610c36578081fd5b610c3f83610bec565b9150610c4d60208401610bec565b90509250929050565b600080600060608486031215610c6a578081fd5b610c7384610bec565b9250610c8160208501610bec565b9150604084013590509250925092565b60008060408385031215610ca3578182fd5b610cac83610bec565b946020939093013593505050565b600060208284031215610ccb578081fd5b5035919050565b6001600160a01b0391909116815260200190565b901515815260200190565b6000602080835283518082850152825b81811015610d1d57858101830151858201604001528201610d01565b81811115610d2e5783604083870101525b50601f01601f1916929092016040019392505050565b60208082526023908201527f45524332303a207472616e7366657220746f20746865207a65726f206164647260408201526265737360e81b606082015260800190565b60208082526022908201527f45524332303a206275726e20616d6f756e7420657863656564732062616c616e604082015261636560f01b606082015260800190565b60208082526026908201527f4f776e61626c653a206e6577206f776e657220697320746865207a65726f206160408201526564647265737360d01b606082015260800190565b60208082526022908201527f45524332303a20617070726f766520746f20746865207a65726f206164647265604082015261737360f01b606082015260800190565b6020808252601d908201527f45524332303a20696e73756666696369656e7420616c6c6f77616e6365000000604082015260600190565b60208082526026908201527f45524332303a207472616e7366657220616d6f756e7420657863656564732062604082015265616c616e636560d01b606082015260800190565b6020808252601e908201527f41646472657373206973206e6f7420616c6c6f77656420746f206d696e740000604082015260600190565b6020808252818101527f4f776e61626c653a2063616c6c6572206973206e6f7420746865206f776e6572604082015260600190565b60208082526021908201527f45524332303a206275726e2066726f6d20746865207a65726f206164647265736040820152607360f81b606082015260800190565b60208082526024908201527f4164647265737320616c726561647920686173206d696e7465722070726976696040820152636c65676560e01b606082015260800190565b60208082526025908201527f45524332303a207472616e736665722066726f6d20746865207a65726f206164604082015264647265737360d81b606082015260800190565b60208082526024908201527f45524332303a20617070726f76652066726f6d20746865207a65726f206164646040820152637265737360e01b606082015260800190565b60208082526025908201527f45524332303a2064656372656173656420616c6c6f77616e63652062656c6f77604082015264207a65726f60d81b606082015260800190565b6020808252601f908201527f45524332303a206d696e7420746f20746865207a65726f206164647265737300604082015260600190565b90815260200190565b60ff91909116815260200190565b600082198211156110ee576110ee611145565b500190565b60008282101561110557611105611145565b500390565b60028104600182168061111e57607f821691505b6020821081141561113f57634e487b7160e01b600052602260045260246000fd5b50919050565b634e487b7160e01b600052601160045260246000fdfea2646970667358221220ccd325a9c1082965d3ed7227c3f579fe37794f31b9f93a96d924b0f09ce5ceb364736f6c63430008010033",
  "linkReferences": {},
  "deployedLinkReferences": {}
}